{
  "contractName": "LongBet",
  "abi": [
    {
      "inputs": [
        {
          "internalType": "address",
          "name": "arg_predictor",
          "type": "address"
        },
        {
          "internalType": "address",
          "name": "arg_challenger",
          "type": "address"
        },
        {
          "internalType": "address",
          "name": "arg_arbiter",
          "type": "address"
        },
        {
          "internalType": "address",
          "name": "pWins",
          "type": "address"
        },
        {
          "internalType": "address",
          "name": "cWins",
          "type": "address"
        },
        {
          "internalType": "string",
          "name": "pArg",
          "type": "string"
        },
        {
          "internalType": "string",
          "name": "t",
          "type": "string"
        }
      ],
      "stateMutability": "payable",
      "type": "constructor"
    },
    {
      "inputs": [],
      "name": "acceptBet",
      "outputs": [],
      "stateMutability": "nonpayable",
      "type": "function"
    },
    {
      "inputs": [
        {
          "internalType": "enum LongBet.VoteState",
          "name": "myVote",
          "type": "uint8"
        }
      ],
      "name": "vote",
      "outputs": [],
      "stateMutability": "nonpayable",
      "type": "function"
    },
    {
      "inputs": [
        {
          "internalType": "address",
          "name": "voter",
          "type": "address"
        }
      ],
      "name": "getVote",
      "outputs": [
        {
          "internalType": "enum LongBet.VoteState",
          "name": "",
          "type": "uint8"
        }
      ],
      "stateMutability": "view",
      "type": "function"
    },
    {
      "inputs": [],
      "name": "shouldComplete",
      "outputs": [],
      "stateMutability": "nonpayable",
      "type": "function"
    }
  ],
  "bytecode": "0x608060405260016000806101000a81548160ff02191690831515021790555060405162001d3c38038062001d3c8339818101604052810190620000439190620004eb565b8573ffffffffffffffffffffffffffffffffffffffff168773ffffffffffffffffffffffffffffffffffffffff1614158015620000ac57508473ffffffffffffffffffffffffffffffffffffffff168673ffffffffffffffffffffffffffffffffffffffff1614155b8015620000e557508673ffffffffffffffffffffffffffffffffffffffff168573ffffffffffffffffffffffffffffffffffffffff1614155b62000127576040517f08c379a00000000000000000000000000000000000000000000000000000000081526004016200011e9062000618565b60405180910390fd5b60405180602001604052806000815250805190602001208280519060200120141580156200017257506040518060200160405280600081525080519060200120818051906020012014155b620001b4576040517f08c379a0000000000000000000000000000000000000000000000000000000008152600401620001ab906200063a565b60405180910390fd5b86600060016101000a81548173ffffffffffffffffffffffffffffffffffffffff021916908373ffffffffffffffffffffffffffffffffffffffff16021790555085600160006101000a81548173ffffffffffffffffffffffffffffffffffffffff021916908373ffffffffffffffffffffffffffffffffffffffff16021790555084600260006101000a81548173ffffffffffffffffffffffffffffffffffffffff021916908373ffffffffffffffffffffffffffffffffffffffff160217905550600073ffffffffffffffffffffffffffffffffffffffff168473ffffffffffffffffffffffffffffffffffffffff1614620002b35783620002b5565b865b600460006101000a81548173ffffffffffffffffffffffffffffffffffffffff021916908373ffffffffffffffffffffffffffffffffffffffff160217905550600073ffffffffffffffffffffffffffffffffffffffff168373ffffffffffffffffffffffffffffffffffffffff161462000331578262000333565b855b600560006101000a81548173ffffffffffffffffffffffffffffffffffffffff021916908373ffffffffffffffffffffffffffffffffffffffff16021790555081600690805190602001906200038b929190620003b2565b508060099080519060200190620003a4929190620003b2565b5050505050505050620008c9565b828054620003c09062000736565b90600052602060002090601f016020900481019282620003e4576000855562000430565b82601f10620003ff57805160ff191683800117855562000430565b8280016001018555821562000430579182015b828111156200042f57825182559160200191906001019062000412565b5b5090506200043f919062000443565b5090565b5b808211156200045e57600081600090555060010162000444565b5090565b600062000479620004738462000685565b6200065c565b9050828152602081018484840111156200049257600080fd5b6200049f84828562000700565b509392505050565b600081519050620004b881620008af565b92915050565b600082601f830112620004d057600080fd5b8151620004e284826020860162000462565b91505092915050565b600080600080600080600060e0888a0312156200050757600080fd5b6000620005178a828b01620004a7565b97505060206200052a8a828b01620004a7565b96505060406200053d8a828b01620004a7565b9550506060620005508a828b01620004a7565b9450506080620005638a828b01620004a7565b93505060a088015167ffffffffffffffff8111156200058157600080fd5b6200058f8a828b01620004be565b92505060c088015167ffffffffffffffff811115620005ad57600080fd5b620005bb8a828b01620004be565b91505092959891949750929550565b6000620005d9603a83620006bb565b9150620005e68262000811565b604082019050919050565b600062000600603183620006bb565b91506200060d8262000860565b604082019050919050565b600060208201905081810360008301526200063381620005ca565b9050919050565b600060208201905081810360008301526200065581620005f1565b9050919050565b6000620006686200067b565b90506200067682826200076c565b919050565b6000604051905090565b600067ffffffffffffffff821115620006a357620006a2620007d1565b5b620006ae8262000800565b9050602081019050919050565b600082825260208201905092915050565b6000620006d982620006e0565b9050919050565b600073ffffffffffffffffffffffffffffffffffffffff82169050919050565b60005b838110156200072057808201518184015260208101905062000703565b8381111562000730576000848401525b50505050565b600060028204905060018216806200074f57607f821691505b60208210811415620007665762000765620007a2565b5b50919050565b620007778262000800565b810181811067ffffffffffffffff82111715620007995762000798620007d1565b5b80604052505050565b7f4e487b7100000000000000000000000000000000000000000000000000000000600052602260045260246000fd5b7f4e487b7100000000000000000000000000000000000000000000000000000000600052604160045260246000fd5b6000601f19601f8301169050919050565b7f707265646963746f722c206368616c6c656e6765722c2061726269746572206d60008201527f75737420626520646966666572656e7420616464726573736573000000000000602082015250565b7f707265646963746f72277320617267756d656e7420616e64207465726d73207360008201527f686f756c646e277420626520656d707479000000000000000000000000000000602082015250565b620008ba81620006cc565b8114620008c657600080fd5b50565b61146380620008d96000396000f3fe608060405234801561001057600080fd5b506004361061004c5760003560e01c806330bfcb5f146100515780638073f69c1461005b5780638d337b8114610065578063b3f98adc14610095575b600080fd5b6100596100b1565b005b610063610158565b005b61007f600480360381019061007a919061119b565b610ce8565b60405161008c9190611265565b60405180910390f35b6100af60048036038101906100aa91906111c4565b610d8c565b005b60008054906101000a900460ff166100fe576040517f08c379a00000000000000000000000000000000000000000000000000000000081526004016100f5906112a0565b60405180910390fd5b6001600b60003373ffffffffffffffffffffffffffffffffffffffff1673ffffffffffffffffffffffffffffffffffffffff16815260200190815260200160002060006101000a81548160ff021916908315150217905550565b60008054906101000a900460ff166101a5576040517f08c379a000000000000000000000000000000000000000000000000000000000815260040161019c906112a0565b60405180910390fd5b600160028111156101df577f4e487b7100000000000000000000000000000000000000000000000000000000600052602160045260246000fd5b600a60008060019054906101000a900473ffffffffffffffffffffffffffffffffffffffff1673ffffffffffffffffffffffffffffffffffffffff1673ffffffffffffffffffffffffffffffffffffffff16815260200190815260200160002060009054906101000a900460ff166002811115610285577f4e487b7100000000000000000000000000000000000000000000000000000000600052602160045260246000fd5b1480156103705750600160028111156102c7577f4e487b7100000000000000000000000000000000000000000000000000000000600052602160045260246000fd5b600a6000600160009054906101000a900473ffffffffffffffffffffffffffffffffffffffff1673ffffffffffffffffffffffffffffffffffffffff1673ffffffffffffffffffffffffffffffffffffffff16815260200190815260200160002060009054906101000a900460ff16600281111561036e577f4e487b7100000000000000000000000000000000000000000000000000000000600052602160045260246000fd5b145b806105425750600160028111156103b0577f4e487b7100000000000000000000000000000000000000000000000000000000600052602160045260246000fd5b600a60008060019054906101000a900473ffffffffffffffffffffffffffffffffffffffff1673ffffffffffffffffffffffffffffffffffffffff1673ffffffffffffffffffffffffffffffffffffffff16815260200190815260200160002060009054906101000a900460ff166002811115610456577f4e487b7100000000000000000000000000000000000000000000000000000000600052602160045260246000fd5b148015610541575060016002811115610498577f4e487b7100000000000000000000000000000000000000000000000000000000600052602160045260246000fd5b600a6000600260009054906101000a900473ffffffffffffffffffffffffffffffffffffffff1673ffffffffffffffffffffffffffffffffffffffff1673ffffffffffffffffffffffffffffffffffffffff16815260200190815260200160002060009054906101000a900460ff16600281111561053f577f4e487b7100000000000000000000000000000000000000000000000000000000600052602160045260246000fd5b145b5b80610715575060016002811115610582577f4e487b7100000000000000000000000000000000000000000000000000000000600052602160045260246000fd5b600a6000600160009054906101000a900473ffffffffffffffffffffffffffffffffffffffff1673ffffffffffffffffffffffffffffffffffffffff1673ffffffffffffffffffffffffffffffffffffffff16815260200190815260200160002060009054906101000a900460ff166002811115610629577f4e487b7100000000000000000000000000000000000000000000000000000000600052602160045260246000fd5b14801561071457506001600281111561066b577f4e487b7100000000000000000000000000000000000000000000000000000000600052602160045260246000fd5b600a6000600260009054906101000a900473ffffffffffffffffffffffffffffffffffffffff1673ffffffffffffffffffffffffffffffffffffffff1673ffffffffffffffffffffffffffffffffffffffff16815260200190815260200160002060009054906101000a900460ff166002811115610712577f4e487b7100000000000000000000000000000000000000000000000000000000600052602160045260246000fd5b145b5b1561074a57610745600460009054906101000a900473ffffffffffffffffffffffffffffffffffffffff166110c0565b610ce6565b600280811115610783577f4e487b7100000000000000000000000000000000000000000000000000000000600052602160045260246000fd5b600a60008060019054906101000a900473ffffffffffffffffffffffffffffffffffffffff1673ffffffffffffffffffffffffffffffffffffffff1673ffffffffffffffffffffffffffffffffffffffff16815260200190815260200160002060009054906101000a900460ff166002811115610829577f4e487b7100000000000000000000000000000000000000000000000000000000600052602160045260246000fd5b148015610913575060028081111561086a577f4e487b7100000000000000000000000000000000000000000000000000000000600052602160045260246000fd5b600a6000600160009054906101000a900473ffffffffffffffffffffffffffffffffffffffff1673ffffffffffffffffffffffffffffffffffffffff1673ffffffffffffffffffffffffffffffffffffffff16815260200190815260200160002060009054906101000a900460ff166002811115610911577f4e487b7100000000000000000000000000000000000000000000000000000000600052602160045260246000fd5b145b80610ae35750600280811115610952577f4e487b7100000000000000000000000000000000000000000000000000000000600052602160045260246000fd5b600a60008060019054906101000a900473ffffffffffffffffffffffffffffffffffffffff1673ffffffffffffffffffffffffffffffffffffffff1673ffffffffffffffffffffffffffffffffffffffff16815260200190815260200160002060009054906101000a900460ff1660028111156109f8577f4e487b7100000000000000000000000000000000000000000000000000000000600052602160045260246000fd5b148015610ae25750600280811115610a39577f4e487b7100000000000000000000000000000000000000000000000000000000600052602160045260246000fd5b600a6000600260009054906101000a900473ffffffffffffffffffffffffffffffffffffffff1673ffffffffffffffffffffffffffffffffffffffff1673ffffffffffffffffffffffffffffffffffffffff16815260200190815260200160002060009054906101000a900460ff166002811115610ae0577f4e487b7100000000000000000000000000000000000000000000000000000000600052602160045260246000fd5b145b5b80610cb45750600280811115610b22577f4e487b7100000000000000000000000000000000000000000000000000000000600052602160045260246000fd5b600a6000600160009054906101000a900473ffffffffffffffffffffffffffffffffffffffff1673ffffffffffffffffffffffffffffffffffffffff1673ffffffffffffffffffffffffffffffffffffffff16815260200190815260200160002060009054906101000a900460ff166002811115610bc9577f4e487b7100000000000000000000000000000000000000000000000000000000600052602160045260246000fd5b148015610cb35750600280811115610c0a577f4e487b7100000000000000000000000000000000000000000000000000000000600052602160045260246000fd5b600a6000600260009054906101000a900473ffffffffffffffffffffffffffffffffffffffff1673ffffffffffffffffffffffffffffffffffffffff1673ffffffffffffffffffffffffffffffffffffffff16815260200190815260200160002060009054906101000a900460ff166002811115610cb1577f4e487b7100000000000000000000000000000000000000000000000000000000600052602160045260246000fd5b145b5b15610ce557610ce4600560009054906101000a900473ffffffffffffffffffffffffffffffffffffffff166110c0565b5b5b565b60008060009054906101000a900460ff16610d38576040517f08c379a0000000000000000000000000000000000000000000000000000000008152600401610d2f906112a0565b60405180910390fd5b600a60008373ffffffffffffffffffffffffffffffffffffffff1673ffffffffffffffffffffffffffffffffffffffff16815260200190815260200160002060009054906101000a900460ff169050919050565b60008054906101000a900460ff16610dd9576040517f08c379a0000000000000000000000000000000000000000000000000000000008152600401610dd0906112a0565b60405180910390fd5b600b60008060019054906101000a900473ffffffffffffffffffffffffffffffffffffffff1673ffffffffffffffffffffffffffffffffffffffff1673ffffffffffffffffffffffffffffffffffffffff16815260200190815260200160002060009054906101000a900460ff168015610ebe5750600b6000600160009054906101000a900473ffffffffffffffffffffffffffffffffffffffff1673ffffffffffffffffffffffffffffffffffffffff1673ffffffffffffffffffffffffffffffffffffffff16815260200190815260200160002060009054906101000a900460ff165b8015610f355750600b6000600260009054906101000a900473ffffffffffffffffffffffffffffffffffffffff1673ffffffffffffffffffffffffffffffffffffffff1673ffffffffffffffffffffffffffffffffffffffff16815260200190815260200160002060009054906101000a900460ff165b610f74576040517f08c379a0000000000000000000000000000000000000000000000000000000008152600401610f6b90611280565b60405180910390fd5b60006002811115610fae577f4e487b7100000000000000000000000000000000000000000000000000000000600052602160045260246000fd5b816002811115610fe7577f4e487b7100000000000000000000000000000000000000000000000000000000600052602160045260246000fd5b1415611028576040517f08c379a000000000000000000000000000000000000000000000000000000000815260040161101f906112c0565b60405180910390fd5b80600a60003373ffffffffffffffffffffffffffffffffffffffff1673ffffffffffffffffffffffffffffffffffffffff16815260200190815260200160002060006101000a81548160ff021916908360028111156110b0577f4e487b7100000000000000000000000000000000000000000000000000000000600052602160045260246000fd5b02179055506110bd610158565b50565b60008054906101000a900460ff1661110d576040517f08c379a0000000000000000000000000000000000000000000000000000000008152600401611104906112a0565b60405180910390fd5b60008060006101000a81548160ff0219169083151502179055508073ffffffffffffffffffffffffffffffffffffffff166108fc479081150290604051600060405180830381858888f1935050505015801561116d573d6000803e3d6000fd5b5050565b60008135905061118081611406565b92915050565b6000813590506111958161141d565b92915050565b6000602082840312156111ad57600080fd5b60006111bb84828501611171565b91505092915050565b6000602082840312156111d657600080fd5b60006111e484828501611186565b91505092915050565b6111f681611336565b82525050565b6000611209601d836112e0565b915061121482611377565b602082019050919050565b600061122c6019836112e0565b9150611237826113a0565b602082019050919050565b600061124f6016836112e0565b915061125a826113c9565b602082019050919050565b600060208201905061127a60008301846111ed565b92915050565b60006020820190508181036000830152611299816111fc565b9050919050565b600060208201905081810360008301526112b98161121f565b9050919050565b600060208201905081810360008301526112d981611242565b9050919050565b600082825260208201905092915050565b60006112fc82611316565b9050919050565b6000819050611311826113f2565b919050565b600073ffffffffffffffffffffffffffffffffffffffff82169050919050565b600061134182611303565b9050919050565b7f4e487b7100000000000000000000000000000000000000000000000000000000600052602160045260246000fd5b7f6e6f7420616c6c20706172746965732068617665206163636570746564000000600082015250565b7f636f6e7472616374206e6f206c6f6e6765722061637469766500000000000000600082015250565b7f63616e277420766f746520666f72204e6f74566f746500000000000000000000600082015250565b6003811061140357611402611348565b5b50565b61140f816112f1565b811461141a57600080fd5b50565b6003811061142a57600080fd5b5056fea26469706673582212206ad4856f660d5a125c74cfca2e876e0f415724d6b79ff5fb1bd4570007823f9164736f6c63430008010033",
  "immutableReferences": {},
  "source": "// SPDX-License-Identifier: GPL-3.0\npragma solidity >=0.8.0 <0.9.0;\n\n/**\n * @title Long Bets, but Crypto TM\n * @dev Store & retrieve value in a variable\n */\n\ncontract LongBet {\n    // todo: add \"earliest date this can be voted on\"\n    // todo: add duration (e.g. this bet is over x years)\n    // todo: add way for arbiter and challenger to set their arguments\n    // todo: disallow anyone but the predictor/challenger/arbiter from accepting/voting\n    // todo: make both parties contribute to the prize pool (right now, only predictor stakes)\n    // todo: both parties need to agree on arbiter\n    // todo: change rewardees\n    \n    bool _isActive = true;\n    \n    address predictor;\n    address challenger;\n    address arbiter; // person who casts the tie-breaker vote in whether a bet was resolved or not\n    \n    uint256 stakes;\n    address predictorWins; // money sent here when predictor wins\n    address challengerWins; // money sent here when challenger wins\n    \n    string predictorArg;\n    string challengerArg;\n    string arbiterArg;\n    \n    string detailedTerms;\n    \n    enum VoteState { NotVoted, VotedYes, VotedNo }\n    \n    mapping (address => VoteState) votes; // stores the votes by individuals\n    mapping (address => bool) accepted; // stores individuals accepting\n    \n\n\n    \n    // https://ethereum.stackexchange.com/questions/82203/how-to-disable-a-contract-by-changing-some-internal-state-which-causes-all-funct\n    modifier checkActive() {\n        require (_isActive, \"contract no longer active\");\n        _;\n    }\n    \n    modifier checkAllAccepted() {\n         // disable voting until all have accepted the bet\n        require((accepted[predictor] && accepted[challenger] && accepted[arbiter]), \"not all parties have accepted\");\n        _;\n    }\n\n    // creates the LongBet\n    constructor(\n        address arg_predictor,\n        address arg_challenger, \n        address arg_arbiter, \n        address pWins, \n        address cWins, \n        string memory pArg, \n        string memory t) \n        payable {\n            require(arg_predictor != arg_challenger && arg_challenger != arg_arbiter && arg_arbiter != arg_predictor, \"predictor, challenger, arbiter must be different addresses\");\n            require(\n                keccak256(bytes(pArg)) != keccak256(bytes(\"\")) && \n                keccak256(bytes(t)) != keccak256(bytes(\"\")), \n                \"predictor's argument and terms shouldn't be empty\"\n                );\n                \n            // todo: add check that value is > 0\n            \n            predictor = arg_predictor;\n            challenger = arg_challenger;\n            arbiter = arg_arbiter;\n            \n            // right now, these conditions are suboptimal: it's a hacky way of approximating null\n            // todo: improve this\n            predictorWins = pWins == address(0x0) ? arg_predictor: pWins;\n            challengerWins = cWins == address(0x0) ? arg_challenger: cWins;\n            \n            // todo: add assertion these aren't empty\n            predictorArg = pArg;\n            detailedTerms = t;\n    }\n    \n    function acceptBet() \n    public \n    checkActive {\n        accepted[msg.sender] = true;\n    }\n    \n    function vote(VoteState myVote) \n    public \n    checkActive \n    checkAllAccepted {\n        require(myVote != VoteState.NotVoted, \"can't vote for NotVote\"); // disable voting until all have accepted the bet\n        \n        votes[msg.sender] = myVote;\n        shouldComplete();\n    }\n    \n    function getVote(address voter) \n    public \n    view \n    checkActive\n    returns (VoteState){\n        return votes[voter];\n    }\n    \n    function shouldComplete() \n    public \n    checkActive {\n        // majority voted yes = predictor won\n        if (\n            (votes[predictor] == VoteState.VotedYes && votes[challenger] == VoteState.VotedYes) ||\n            (votes[predictor] == VoteState.VotedYes && votes[arbiter] == VoteState.VotedYes) ||\n            (votes[challenger] == VoteState.VotedYes && votes[arbiter] == VoteState.VotedYes)\n            ) {\n                distributeReward(predictorWins);\n            } \n            \n        // majority voted no = challenger won\n        else if (\n            (votes[predictor] == VoteState.VotedNo && votes[challenger] == VoteState.VotedNo) ||\n            (votes[predictor] == VoteState.VotedNo && votes[arbiter] == VoteState.VotedNo) ||\n            (votes[challenger] == VoteState.VotedNo && votes[arbiter] == VoteState.VotedNo)\n            ) {\n                distributeReward(challengerWins);\n            }\n    }\n    \n    function distributeReward(address rewardee) \n    private \n    checkActive {\n        // send all money to this dude and deactivate contract\n        _isActive = false;\n        // todo: should i stop using transfer? see: https://consensys.net/diligence/blog/2019/09/stop-using-soliditys-transfer-now/\n        payable(rewardee).transfer(address(this).balance);\n    }\n    \n    /* \n    TODO: create this funcs\n    */\n    \n    // edit a bet?\n}\n",
  "sourcePath": "/Users/aryavohra/newprojects/longbets/newclient/contracts/LongBet.sol",
  "compiler": {
    "name": "solc",
    "version": "0.8.1+commit.df193b15.Emscripten.clang"
  },
  "schemaVersion": "3.3.4",
  "updatedAt": "2021-02-14T02:51:25.699Z",
  "devdoc": {
    "details": "Store & retrieve value in a variable",
    "kind": "dev",
    "methods": {},
    "title": "Long Bets, but Crypto TM",
    "version": 1
  },
  "userdoc": {
    "kind": "user",
    "methods": {},
    "version": 1
  }
}