{
  "contractName": "QuestoBets",
  "abi": [
    {
      "inputs": [
        {
          "internalType": "address",
          "name": "arg_challenger",
          "type": "address"
        },
        {
          "internalType": "address",
          "name": "arg_arbiter",
          "type": "address"
        },
        {
          "internalType": "address",
          "name": "pWins",
          "type": "address"
        },
        {
          "internalType": "address",
          "name": "cWins",
          "type": "address"
        },
        {
          "internalType": "string",
          "name": "pArg",
          "type": "string"
        },
        {
          "internalType": "string",
          "name": "t",
          "type": "string"
        }
      ],
      "name": "newBet",
      "outputs": [
        {
          "internalType": "address",
          "name": "",
          "type": "address"
        }
      ],
      "stateMutability": "payable",
      "type": "function",
      "payable": true
    }
  ],
  "bytecode": "0x608060405234801561001057600080fd5b506126a6806100206000396000f3fe608060405260043610620000205760003560e01c806368ef58bc1462000025575b600080fd5b6200004360048036038101906200003d9190620003d8565b6200005b565b60405162000052919062000567565b60405180910390f35b6000803411620000a2576040517f08c379a000000000000000000000000000000000000000000000000000000000815260040162000099906200060f565b60405180910390fd5b8673ffffffffffffffffffffffffffffffffffffffff163373ffffffffffffffffffffffffffffffffffffffff16141580156200010b57508573ffffffffffffffffffffffffffffffffffffffff168773ffffffffffffffffffffffffffffffffffffffff1614155b80156200014457503373ffffffffffffffffffffffffffffffffffffffff168673ffffffffffffffffffffffffffffffffffffffff1614155b62000186576040517f08c379a00000000000000000000000000000000000000000000000000000000081526004016200017d9062000631565b60405180910390fd5b6040518060200160405280600081525080519060200120838051906020012014158015620001d157506040518060200160405280600081525080519060200120828051906020012014155b62000213576040517f08c379a00000000000000000000000000000000000000000000000000000000081526004016200020a9062000653565b60405180910390fd5b600034338989898989896040516200022b9062000341565b6200023d979695949392919062000584565b6040518091039082f09050801580156200025b573d6000803e3d6000fd5b509080600181540180825580915050600190039060005260206000200160009091909190916101000a81548173ffffffffffffffffffffffffffffffffffffffff021916908373ffffffffffffffffffffffffffffffffffffffff16021790555060006001600080549050620002d29190620006f0565b815481106200030a577f4e487b7100000000000000000000000000000000000000000000000000000000600052603260045260246000fd5b9060005260206000200160009054906101000a900473ffffffffffffffffffffffffffffffffffffffff1690509695505050505050565b611d3c806200093583390190565b60006200036662000360846200069e565b62000675565b9050828152602081018484840111156200037f57600080fd5b6200038c84828562000769565b509392505050565b600081359050620003a5816200091a565b92915050565b600082601f830112620003bd57600080fd5b8135620003cf8482602086016200034f565b91505092915050565b60008060008060008060c08789031215620003f257600080fd5b60006200040289828a0162000394565b96505060206200041589828a0162000394565b95505060406200042889828a0162000394565b94505060606200043b89828a0162000394565b935050608087013567ffffffffffffffff8111156200045957600080fd5b6200046789828a01620003ab565b92505060a087013567ffffffffffffffff8111156200048557600080fd5b6200049389828a01620003ab565b9150509295509295509295565b620004ab816200072b565b82525050565b6000620004be82620006d4565b620004ca8185620006df565b9350620004dc81856020860162000778565b620004e78162000842565b840191505092915050565b600062000501601283620006df565b91506200050e8262000853565b602082019050919050565b600062000528603a83620006df565b915062000535826200087c565b604082019050919050565b60006200054f603183620006df565b91506200055c82620008cb565b604082019050919050565b60006020820190506200057e6000830184620004a0565b92915050565b600060e0820190506200059b600083018a620004a0565b620005aa6020830189620004a0565b620005b96040830188620004a0565b620005c86060830187620004a0565b620005d76080830186620004a0565b81810360a0830152620005eb8185620004b1565b905081810360c0830152620006018184620004b1565b905098975050505050505050565b600060208201905081810360008301526200062a81620004f2565b9050919050565b600060208201905081810360008301526200064c8162000519565b9050919050565b600060208201905081810360008301526200066e8162000540565b9050919050565b60006200068162000694565b90506200068f8282620007ae565b919050565b6000604051905090565b600067ffffffffffffffff821115620006bc57620006bb62000813565b5b620006c78262000842565b9050602081019050919050565b600081519050919050565b600082825260208201905092915050565b6000620006fd826200075f565b91506200070a836200075f565b92508282101562000720576200071f620007e4565b5b828203905092915050565b600062000738826200073f565b9050919050565b600073ffffffffffffffffffffffffffffffffffffffff82169050919050565b6000819050919050565b82818337600083830152505050565b60005b83811015620007985780820151818401526020810190506200077b565b83811115620007a8576000848401525b50505050565b620007b98262000842565b810181811067ffffffffffffffff82111715620007db57620007da62000813565b5b80604052505050565b7f4e487b7100000000000000000000000000000000000000000000000000000000600052601160045260246000fd5b7f4e487b7100000000000000000000000000000000000000000000000000000000600052604160045260246000fd5b6000601f19601f8301169050919050565b7f6d757374206465706f736974207374616b650000000000000000000000000000600082015250565b7f707265646963746f722c206368616c6c656e6765722c2061726269746572206d60008201527f75737420626520646966666572656e7420616464726573736573000000000000602082015250565b7f707265646963746f72277320617267756d656e7420616e64207465726d73207360008201527f686f756c646e277420626520656d707479000000000000000000000000000000602082015250565b62000925816200072b565b81146200093157600080fd5b5056fe608060405260016000806101000a81548160ff02191690831515021790555060405162001d3c38038062001d3c8339818101604052810190620000439190620004eb565b8573ffffffffffffffffffffffffffffffffffffffff168773ffffffffffffffffffffffffffffffffffffffff1614158015620000ac57508473ffffffffffffffffffffffffffffffffffffffff168673ffffffffffffffffffffffffffffffffffffffff1614155b8015620000e557508673ffffffffffffffffffffffffffffffffffffffff168573ffffffffffffffffffffffffffffffffffffffff1614155b62000127576040517f08c379a00000000000000000000000000000000000000000000000000000000081526004016200011e9062000618565b60405180910390fd5b60405180602001604052806000815250805190602001208280519060200120141580156200017257506040518060200160405280600081525080519060200120818051906020012014155b620001b4576040517f08c379a0000000000000000000000000000000000000000000000000000000008152600401620001ab906200063a565b60405180910390fd5b86600060016101000a81548173ffffffffffffffffffffffffffffffffffffffff021916908373ffffffffffffffffffffffffffffffffffffffff16021790555085600160006101000a81548173ffffffffffffffffffffffffffffffffffffffff021916908373ffffffffffffffffffffffffffffffffffffffff16021790555084600260006101000a81548173ffffffffffffffffffffffffffffffffffffffff021916908373ffffffffffffffffffffffffffffffffffffffff160217905550600073ffffffffffffffffffffffffffffffffffffffff168473ffffffffffffffffffffffffffffffffffffffff1614620002b35783620002b5565b865b600460006101000a81548173ffffffffffffffffffffffffffffffffffffffff021916908373ffffffffffffffffffffffffffffffffffffffff160217905550600073ffffffffffffffffffffffffffffffffffffffff168373ffffffffffffffffffffffffffffffffffffffff161462000331578262000333565b855b600560006101000a81548173ffffffffffffffffffffffffffffffffffffffff021916908373ffffffffffffffffffffffffffffffffffffffff16021790555081600690805190602001906200038b929190620003b2565b508060099080519060200190620003a4929190620003b2565b5050505050505050620008c9565b828054620003c09062000736565b90600052602060002090601f016020900481019282620003e4576000855562000430565b82601f10620003ff57805160ff191683800117855562000430565b8280016001018555821562000430579182015b828111156200042f57825182559160200191906001019062000412565b5b5090506200043f919062000443565b5090565b5b808211156200045e57600081600090555060010162000444565b5090565b600062000479620004738462000685565b6200065c565b9050828152602081018484840111156200049257600080fd5b6200049f84828562000700565b509392505050565b600081519050620004b881620008af565b92915050565b600082601f830112620004d057600080fd5b8151620004e284826020860162000462565b91505092915050565b600080600080600080600060e0888a0312156200050757600080fd5b6000620005178a828b01620004a7565b97505060206200052a8a828b01620004a7565b96505060406200053d8a828b01620004a7565b9550506060620005508a828b01620004a7565b9450506080620005638a828b01620004a7565b93505060a088015167ffffffffffffffff8111156200058157600080fd5b6200058f8a828b01620004be565b92505060c088015167ffffffffffffffff811115620005ad57600080fd5b620005bb8a828b01620004be565b91505092959891949750929550565b6000620005d9603a83620006bb565b9150620005e68262000811565b604082019050919050565b600062000600603183620006bb565b91506200060d8262000860565b604082019050919050565b600060208201905081810360008301526200063381620005ca565b9050919050565b600060208201905081810360008301526200065581620005f1565b9050919050565b6000620006686200067b565b90506200067682826200076c565b919050565b6000604051905090565b600067ffffffffffffffff821115620006a357620006a2620007d1565b5b620006ae8262000800565b9050602081019050919050565b600082825260208201905092915050565b6000620006d982620006e0565b9050919050565b600073ffffffffffffffffffffffffffffffffffffffff82169050919050565b60005b838110156200072057808201518184015260208101905062000703565b8381111562000730576000848401525b50505050565b600060028204905060018216806200074f57607f821691505b60208210811415620007665762000765620007a2565b5b50919050565b620007778262000800565b810181811067ffffffffffffffff82111715620007995762000798620007d1565b5b80604052505050565b7f4e487b7100000000000000000000000000000000000000000000000000000000600052602260045260246000fd5b7f4e487b7100000000000000000000000000000000000000000000000000000000600052604160045260246000fd5b6000601f19601f8301169050919050565b7f707265646963746f722c206368616c6c656e6765722c2061726269746572206d60008201527f75737420626520646966666572656e7420616464726573736573000000000000602082015250565b7f707265646963746f72277320617267756d656e7420616e64207465726d73207360008201527f686f756c646e277420626520656d707479000000000000000000000000000000602082015250565b620008ba81620006cc565b8114620008c657600080fd5b50565b61146380620008d96000396000f3fe608060405234801561001057600080fd5b506004361061004c5760003560e01c806330bfcb5f146100515780638073f69c1461005b5780638d337b8114610065578063b3f98adc14610095575b600080fd5b6100596100b1565b005b610063610158565b005b61007f600480360381019061007a919061119b565b610ce8565b60405161008c9190611265565b60405180910390f35b6100af60048036038101906100aa91906111c4565b610d8c565b005b60008054906101000a900460ff166100fe576040517f08c379a00000000000000000000000000000000000000000000000000000000081526004016100f5906112a0565b60405180910390fd5b6001600b60003373ffffffffffffffffffffffffffffffffffffffff1673ffffffffffffffffffffffffffffffffffffffff16815260200190815260200160002060006101000a81548160ff021916908315150217905550565b60008054906101000a900460ff166101a5576040517f08c379a000000000000000000000000000000000000000000000000000000000815260040161019c906112a0565b60405180910390fd5b600160028111156101df577f4e487b7100000000000000000000000000000000000000000000000000000000600052602160045260246000fd5b600a60008060019054906101000a900473ffffffffffffffffffffffffffffffffffffffff1673ffffffffffffffffffffffffffffffffffffffff1673ffffffffffffffffffffffffffffffffffffffff16815260200190815260200160002060009054906101000a900460ff166002811115610285577f4e487b7100000000000000000000000000000000000000000000000000000000600052602160045260246000fd5b1480156103705750600160028111156102c7577f4e487b7100000000000000000000000000000000000000000000000000000000600052602160045260246000fd5b600a6000600160009054906101000a900473ffffffffffffffffffffffffffffffffffffffff1673ffffffffffffffffffffffffffffffffffffffff1673ffffffffffffffffffffffffffffffffffffffff16815260200190815260200160002060009054906101000a900460ff16600281111561036e577f4e487b7100000000000000000000000000000000000000000000000000000000600052602160045260246000fd5b145b806105425750600160028111156103b0577f4e487b7100000000000000000000000000000000000000000000000000000000600052602160045260246000fd5b600a60008060019054906101000a900473ffffffffffffffffffffffffffffffffffffffff1673ffffffffffffffffffffffffffffffffffffffff1673ffffffffffffffffffffffffffffffffffffffff16815260200190815260200160002060009054906101000a900460ff166002811115610456577f4e487b7100000000000000000000000000000000000000000000000000000000600052602160045260246000fd5b148015610541575060016002811115610498577f4e487b7100000000000000000000000000000000000000000000000000000000600052602160045260246000fd5b600a6000600260009054906101000a900473ffffffffffffffffffffffffffffffffffffffff1673ffffffffffffffffffffffffffffffffffffffff1673ffffffffffffffffffffffffffffffffffffffff16815260200190815260200160002060009054906101000a900460ff16600281111561053f577f4e487b7100000000000000000000000000000000000000000000000000000000600052602160045260246000fd5b145b5b80610715575060016002811115610582577f4e487b7100000000000000000000000000000000000000000000000000000000600052602160045260246000fd5b600a6000600160009054906101000a900473ffffffffffffffffffffffffffffffffffffffff1673ffffffffffffffffffffffffffffffffffffffff1673ffffffffffffffffffffffffffffffffffffffff16815260200190815260200160002060009054906101000a900460ff166002811115610629577f4e487b7100000000000000000000000000000000000000000000000000000000600052602160045260246000fd5b14801561071457506001600281111561066b577f4e487b7100000000000000000000000000000000000000000000000000000000600052602160045260246000fd5b600a6000600260009054906101000a900473ffffffffffffffffffffffffffffffffffffffff1673ffffffffffffffffffffffffffffffffffffffff1673ffffffffffffffffffffffffffffffffffffffff16815260200190815260200160002060009054906101000a900460ff166002811115610712577f4e487b7100000000000000000000000000000000000000000000000000000000600052602160045260246000fd5b145b5b1561074a57610745600460009054906101000a900473ffffffffffffffffffffffffffffffffffffffff166110c0565b610ce6565b600280811115610783577f4e487b7100000000000000000000000000000000000000000000000000000000600052602160045260246000fd5b600a60008060019054906101000a900473ffffffffffffffffffffffffffffffffffffffff1673ffffffffffffffffffffffffffffffffffffffff1673ffffffffffffffffffffffffffffffffffffffff16815260200190815260200160002060009054906101000a900460ff166002811115610829577f4e487b7100000000000000000000000000000000000000000000000000000000600052602160045260246000fd5b148015610913575060028081111561086a577f4e487b7100000000000000000000000000000000000000000000000000000000600052602160045260246000fd5b600a6000600160009054906101000a900473ffffffffffffffffffffffffffffffffffffffff1673ffffffffffffffffffffffffffffffffffffffff1673ffffffffffffffffffffffffffffffffffffffff16815260200190815260200160002060009054906101000a900460ff166002811115610911577f4e487b7100000000000000000000000000000000000000000000000000000000600052602160045260246000fd5b145b80610ae35750600280811115610952577f4e487b7100000000000000000000000000000000000000000000000000000000600052602160045260246000fd5b600a60008060019054906101000a900473ffffffffffffffffffffffffffffffffffffffff1673ffffffffffffffffffffffffffffffffffffffff1673ffffffffffffffffffffffffffffffffffffffff16815260200190815260200160002060009054906101000a900460ff1660028111156109f8577f4e487b7100000000000000000000000000000000000000000000000000000000600052602160045260246000fd5b148015610ae25750600280811115610a39577f4e487b7100000000000000000000000000000000000000000000000000000000600052602160045260246000fd5b600a6000600260009054906101000a900473ffffffffffffffffffffffffffffffffffffffff1673ffffffffffffffffffffffffffffffffffffffff1673ffffffffffffffffffffffffffffffffffffffff16815260200190815260200160002060009054906101000a900460ff166002811115610ae0577f4e487b7100000000000000000000000000000000000000000000000000000000600052602160045260246000fd5b145b5b80610cb45750600280811115610b22577f4e487b7100000000000000000000000000000000000000000000000000000000600052602160045260246000fd5b600a6000600160009054906101000a900473ffffffffffffffffffffffffffffffffffffffff1673ffffffffffffffffffffffffffffffffffffffff1673ffffffffffffffffffffffffffffffffffffffff16815260200190815260200160002060009054906101000a900460ff166002811115610bc9577f4e487b7100000000000000000000000000000000000000000000000000000000600052602160045260246000fd5b148015610cb35750600280811115610c0a577f4e487b7100000000000000000000000000000000000000000000000000000000600052602160045260246000fd5b600a6000600260009054906101000a900473ffffffffffffffffffffffffffffffffffffffff1673ffffffffffffffffffffffffffffffffffffffff1673ffffffffffffffffffffffffffffffffffffffff16815260200190815260200160002060009054906101000a900460ff166002811115610cb1577f4e487b7100000000000000000000000000000000000000000000000000000000600052602160045260246000fd5b145b5b15610ce557610ce4600560009054906101000a900473ffffffffffffffffffffffffffffffffffffffff166110c0565b5b5b565b60008060009054906101000a900460ff16610d38576040517f08c379a0000000000000000000000000000000000000000000000000000000008152600401610d2f906112a0565b60405180910390fd5b600a60008373ffffffffffffffffffffffffffffffffffffffff1673ffffffffffffffffffffffffffffffffffffffff16815260200190815260200160002060009054906101000a900460ff169050919050565b60008054906101000a900460ff16610dd9576040517f08c379a0000000000000000000000000000000000000000000000000000000008152600401610dd0906112a0565b60405180910390fd5b600b60008060019054906101000a900473ffffffffffffffffffffffffffffffffffffffff1673ffffffffffffffffffffffffffffffffffffffff1673ffffffffffffffffffffffffffffffffffffffff16815260200190815260200160002060009054906101000a900460ff168015610ebe5750600b6000600160009054906101000a900473ffffffffffffffffffffffffffffffffffffffff1673ffffffffffffffffffffffffffffffffffffffff1673ffffffffffffffffffffffffffffffffffffffff16815260200190815260200160002060009054906101000a900460ff165b8015610f355750600b6000600260009054906101000a900473ffffffffffffffffffffffffffffffffffffffff1673ffffffffffffffffffffffffffffffffffffffff1673ffffffffffffffffffffffffffffffffffffffff16815260200190815260200160002060009054906101000a900460ff165b610f74576040517f08c379a0000000000000000000000000000000000000000000000000000000008152600401610f6b90611280565b60405180910390fd5b60006002811115610fae577f4e487b7100000000000000000000000000000000000000000000000000000000600052602160045260246000fd5b816002811115610fe7577f4e487b7100000000000000000000000000000000000000000000000000000000600052602160045260246000fd5b1415611028576040517f08c379a000000000000000000000000000000000000000000000000000000000815260040161101f906112c0565b60405180910390fd5b80600a60003373ffffffffffffffffffffffffffffffffffffffff1673ffffffffffffffffffffffffffffffffffffffff16815260200190815260200160002060006101000a81548160ff021916908360028111156110b0577f4e487b7100000000000000000000000000000000000000000000000000000000600052602160045260246000fd5b02179055506110bd610158565b50565b60008054906101000a900460ff1661110d576040517f08c379a0000000000000000000000000000000000000000000000000000000008152600401611104906112a0565b60405180910390fd5b60008060006101000a81548160ff0219169083151502179055508073ffffffffffffffffffffffffffffffffffffffff166108fc479081150290604051600060405180830381858888f1935050505015801561116d573d6000803e3d6000fd5b5050565b60008135905061118081611406565b92915050565b6000813590506111958161141d565b92915050565b6000602082840312156111ad57600080fd5b60006111bb84828501611171565b91505092915050565b6000602082840312156111d657600080fd5b60006111e484828501611186565b91505092915050565b6111f681611336565b82525050565b6000611209601d836112e0565b915061121482611377565b602082019050919050565b600061122c6019836112e0565b9150611237826113a0565b602082019050919050565b600061124f6016836112e0565b915061125a826113c9565b602082019050919050565b600060208201905061127a60008301846111ed565b92915050565b60006020820190508181036000830152611299816111fc565b9050919050565b600060208201905081810360008301526112b98161121f565b9050919050565b600060208201905081810360008301526112d981611242565b9050919050565b600082825260208201905092915050565b60006112fc82611316565b9050919050565b6000819050611311826113f2565b919050565b600073ffffffffffffffffffffffffffffffffffffffff82169050919050565b600061134182611303565b9050919050565b7f4e487b7100000000000000000000000000000000000000000000000000000000600052602160045260246000fd5b7f6e6f7420616c6c20706172746965732068617665206163636570746564000000600082015250565b7f636f6e7472616374206e6f206c6f6e6765722061637469766500000000000000600082015250565b7f63616e277420766f746520666f72204e6f74566f746500000000000000000000600082015250565b6003811061140357611402611348565b5b50565b61140f816112f1565b811461141a57600080fd5b50565b6003811061142a57600080fd5b5056fea26469706673582212206ad4856f660d5a125c74cfca2e876e0f415724d6b79ff5fb1bd4570007823f9164736f6c63430008010033a2646970667358221220c6a9ddd5dd78f898a4c7d793852a42c762e706125991d2d644a16024badc9e5a64736f6c63430008010033",
  "immutableReferences": {},
  "source": "// SPDX-License-Identifier: GPL-3.0\npragma solidity >=0.8.0 <0.9.0;\n\n/**\n * @title Long Bets, but Crypto TM\n * @dev Store & retrieve value in a variable\n */\n\nimport \"./LongBet.sol\";\n\ncontract QuestoBets {\n    LongBet[] bets;\n\n    function newBet(\n        address arg_challenger, \n        address arg_arbiter, \n        address pWins, \n        address cWins, \n        string memory pArg, \n        string memory t)\n    payable \n    public returns (address){\n        require(msg.value > 0, \"must deposit stake\");\n        require(msg.sender != arg_challenger && arg_challenger != arg_arbiter && arg_arbiter != msg.sender, \"predictor, challenger, arbiter must be different addresses\");\n        require(\n            keccak256(bytes(pArg)) != keccak256(bytes(\"\")) && \n            keccak256(bytes(t)) != keccak256(bytes(\"\")), \n            \"predictor's argument and terms shouldn't be empty\"\n            );\n\n        bets.push(new LongBet{value:msg.value}(msg.sender, arg_challenger, arg_arbiter, pWins, cWins, pArg, t));\n        // payable(address(bets[bets.length-1])).transfer(msg.value);\n        return address(bets[bets.length-1]);\n    }\n}\n",
  "sourcePath": "/Users/aryavohra/newprojects/longbets/newclient/contracts/QuestoBets.sol",
  "compiler": {
    "name": "solc",
    "version": "0.8.1+commit.df193b15.Emscripten.clang"
  },
  "schemaVersion": "3.3.4",
  "updatedAt": "2021-02-14T02:52:35.242Z",
  "networkType": "ethereum",
  "devdoc": {
    "kind": "dev",
    "methods": {},
    "version": 1
  },
  "userdoc": {
    "kind": "user",
    "methods": {},
    "version": 1
  }
}