{
  "contractName": "LongBet",
  "abi": [
    {
      "inputs": [
        {
          "internalType": "string",
          "name": "arg_prediction",
          "type": "string"
        },
        {
          "internalType": "address",
          "name": "arg_predictor",
          "type": "address"
        },
        {
          "internalType": "address",
          "name": "arg_challenger",
          "type": "address"
        },
        {
          "internalType": "address",
          "name": "arg_arbiter",
          "type": "address"
        },
        {
          "internalType": "address",
          "name": "pWins",
          "type": "address"
        },
        {
          "internalType": "address",
          "name": "cWins",
          "type": "address"
        },
        {
          "internalType": "string",
          "name": "pArg",
          "type": "string"
        },
        {
          "internalType": "string",
          "name": "t",
          "type": "string"
        }
      ],
      "stateMutability": "payable",
      "type": "constructor"
    },
    {
      "inputs": [
        {
          "internalType": "address",
          "name": "",
          "type": "address"
        }
      ],
      "name": "accepted",
      "outputs": [
        {
          "internalType": "bool",
          "name": "",
          "type": "bool"
        }
      ],
      "stateMutability": "view",
      "type": "function"
    },
    {
      "inputs": [],
      "name": "arbiter",
      "outputs": [
        {
          "internalType": "address",
          "name": "",
          "type": "address"
        }
      ],
      "stateMutability": "view",
      "type": "function"
    },
    {
      "inputs": [],
      "name": "arbiterArg",
      "outputs": [
        {
          "internalType": "string",
          "name": "",
          "type": "string"
        }
      ],
      "stateMutability": "view",
      "type": "function"
    },
    {
      "inputs": [],
      "name": "challenger",
      "outputs": [
        {
          "internalType": "address",
          "name": "",
          "type": "address"
        }
      ],
      "stateMutability": "view",
      "type": "function"
    },
    {
      "inputs": [],
      "name": "challengerArg",
      "outputs": [
        {
          "internalType": "string",
          "name": "",
          "type": "string"
        }
      ],
      "stateMutability": "view",
      "type": "function"
    },
    {
      "inputs": [],
      "name": "challengerWins",
      "outputs": [
        {
          "internalType": "address",
          "name": "",
          "type": "address"
        }
      ],
      "stateMutability": "view",
      "type": "function"
    },
    {
      "inputs": [],
      "name": "detailedTerms",
      "outputs": [
        {
          "internalType": "string",
          "name": "",
          "type": "string"
        }
      ],
      "stateMutability": "view",
      "type": "function"
    },
    {
      "inputs": [],
      "name": "prediction",
      "outputs": [
        {
          "internalType": "string",
          "name": "",
          "type": "string"
        }
      ],
      "stateMutability": "view",
      "type": "function"
    },
    {
      "inputs": [],
      "name": "predictor",
      "outputs": [
        {
          "internalType": "address",
          "name": "",
          "type": "address"
        }
      ],
      "stateMutability": "view",
      "type": "function"
    },
    {
      "inputs": [],
      "name": "predictorArg",
      "outputs": [
        {
          "internalType": "string",
          "name": "",
          "type": "string"
        }
      ],
      "stateMutability": "view",
      "type": "function"
    },
    {
      "inputs": [],
      "name": "predictorWins",
      "outputs": [
        {
          "internalType": "address",
          "name": "",
          "type": "address"
        }
      ],
      "stateMutability": "view",
      "type": "function"
    },
    {
      "inputs": [],
      "name": "stakes",
      "outputs": [
        {
          "internalType": "uint256",
          "name": "",
          "type": "uint256"
        }
      ],
      "stateMutability": "view",
      "type": "function"
    },
    {
      "inputs": [
        {
          "internalType": "address",
          "name": "",
          "type": "address"
        }
      ],
      "name": "votes",
      "outputs": [
        {
          "internalType": "enum LongBet.VoteState",
          "name": "",
          "type": "uint8"
        }
      ],
      "stateMutability": "view",
      "type": "function"
    },
    {
      "inputs": [],
      "name": "acceptBet",
      "outputs": [],
      "stateMutability": "nonpayable",
      "type": "function"
    },
    {
      "inputs": [
        {
          "internalType": "enum LongBet.VoteState",
          "name": "myVote",
          "type": "uint8"
        }
      ],
      "name": "vote",
      "outputs": [],
      "stateMutability": "nonpayable",
      "type": "function"
    },
    {
      "inputs": [
        {
          "internalType": "address",
          "name": "voter",
          "type": "address"
        }
      ],
      "name": "getVote",
      "outputs": [
        {
          "internalType": "enum LongBet.VoteState",
          "name": "",
          "type": "uint8"
        }
      ],
      "stateMutability": "view",
      "type": "function"
    },
    {
      "inputs": [],
      "name": "shouldComplete",
      "outputs": [],
      "stateMutability": "nonpayable",
      "type": "function"
    }
  ],
  "bytecode": "0x608060405260016000806101000a81548160ff02191690831515021790555060405162002c4e38038062002c4e8339818101604052810190620000439190620005ae565b6000341162000089576040517f08c379a0000000000000000000000000000000000000000000000000000000008152600401620000809062000758565b60405180910390fd5b604051806020016040528060008152508051906020012088805190602001201415620000ec576040517f08c379a0000000000000000000000000000000000000000000000000000000008152600401620000e390620007be565b60405180910390fd5b8573ffffffffffffffffffffffffffffffffffffffff168773ffffffffffffffffffffffffffffffffffffffff16141580156200015557508473ffffffffffffffffffffffffffffffffffffffff168673ffffffffffffffffffffffffffffffffffffffff1614155b80156200018e57508673ffffffffffffffffffffffffffffffffffffffff168573ffffffffffffffffffffffffffffffffffffffff1614155b620001d0576040517f08c379a0000000000000000000000000000000000000000000000000000000008152600401620001c7906200077a565b60405180910390fd5b60405180602001604052806000815250805190602001208280519060200120141580156200021b57506040518060200160405280600081525080519060200120818051906020012014155b6200025d576040517f08c379a000000000000000000000000000000000000000000000000000000000815260040162000254906200079c565b60405180910390fd5b87600690805190602001906200027592919062000475565b5086600060016101000a81548173ffffffffffffffffffffffffffffffffffffffff021916908373ffffffffffffffffffffffffffffffffffffffff16021790555085600160006101000a81548173ffffffffffffffffffffffffffffffffffffffff021916908373ffffffffffffffffffffffffffffffffffffffff16021790555084600260006101000a81548173ffffffffffffffffffffffffffffffffffffffff021916908373ffffffffffffffffffffffffffffffffffffffff160217905550600073ffffffffffffffffffffffffffffffffffffffff168473ffffffffffffffffffffffffffffffffffffffff161462000375578362000377565b865b600460006101000a81548173ffffffffffffffffffffffffffffffffffffffff021916908373ffffffffffffffffffffffffffffffffffffffff160217905550600073ffffffffffffffffffffffffffffffffffffffff168373ffffffffffffffffffffffffffffffffffffffff1614620003f35782620003f5565b855b600560006101000a81548173ffffffffffffffffffffffffffffffffffffffff021916908373ffffffffffffffffffffffffffffffffffffffff16021790555081600790805190602001906200044d92919062000475565b5080600a90805190602001906200046692919062000475565b50505050505050505062000a9f565b8280546200048390620008ba565b90600052602060002090601f016020900481019282620004a75760008555620004f3565b82601f10620004c257805160ff1916838001178555620004f3565b82800160010185558215620004f3579182015b82811115620004f2578251825591602001919060010190620004d5565b5b50905062000502919062000506565b5090565b5b808211156200052157600081600090555060010162000507565b5090565b60006200053c620005368462000809565b620007e0565b9050828152602081018484840111156200055557600080fd5b6200056284828562000884565b509392505050565b6000815190506200057b8162000a85565b92915050565b600082601f8301126200059357600080fd5b8151620005a584826020860162000525565b91505092915050565b600080600080600080600080610100898b031215620005cc57600080fd5b600089015167ffffffffffffffff811115620005e757600080fd5b620005f58b828c0162000581565b9850506020620006088b828c016200056a565b97505060406200061b8b828c016200056a565b96505060606200062e8b828c016200056a565b9550506080620006418b828c016200056a565b94505060a0620006548b828c016200056a565b93505060c089015167ffffffffffffffff8111156200067257600080fd5b620006808b828c0162000581565b92505060e089015167ffffffffffffffff8111156200069e57600080fd5b620006ac8b828c0162000581565b9150509295985092959890939650565b6000620006cb6012836200083f565b9150620006d88262000995565b602082019050919050565b6000620006f2603a836200083f565b9150620006ff82620009be565b604082019050919050565b6000620007196031836200083f565b9150620007268262000a0d565b604082019050919050565b6000620007406018836200083f565b91506200074d8262000a5c565b602082019050919050565b600060208201905081810360008301526200077381620006bc565b9050919050565b600060208201905081810360008301526200079581620006e3565b9050919050565b60006020820190508181036000830152620007b7816200070a565b9050919050565b60006020820190508181036000830152620007d98162000731565b9050919050565b6000620007ec620007ff565b9050620007fa8282620008f0565b919050565b6000604051905090565b600067ffffffffffffffff82111562000827576200082662000955565b5b620008328262000984565b9050602081019050919050565b600082825260208201905092915050565b60006200085d8262000864565b9050919050565b600073ffffffffffffffffffffffffffffffffffffffff82169050919050565b60005b83811015620008a457808201518184015260208101905062000887565b83811115620008b4576000848401525b50505050565b60006002820490506001821680620008d357607f821691505b60208210811415620008ea57620008e962000926565b5b50919050565b620008fb8262000984565b810181811067ffffffffffffffff821117156200091d576200091c62000955565b5b80604052505050565b7f4e487b7100000000000000000000000000000000000000000000000000000000600052602260045260246000fd5b7f4e487b7100000000000000000000000000000000000000000000000000000000600052604160045260246000fd5b6000601f19601f8301169050919050565b7f6d757374206465706f736974207374616b650000000000000000000000000000600082015250565b7f707265646963746f722c206368616c6c656e6765722c2061726269746572206d60008201527f75737420626520646966666572656e7420616464726573736573000000000000602082015250565b7f707265646963746f72277320617267756d656e7420616e64207465726d73207360008201527f686f756c646e277420626520656d707479000000000000000000000000000000602082015250565b7f6d7573742070726f766964652070726564696374696f6e210000000000000000600082015250565b62000a908162000850565b811462000a9c57600080fd5b50565b61219f8062000aaf6000396000f3fe608060405234801561001057600080fd5b506004361061010b5760003560e01c80635ce02011116100a2578063a621372d11610071578063a621372d14610274578063ad09c7ce14610292578063b3f98adc146102b0578063d8bff5a5146102cc578063fe25e00a146102fc5761010b565b80635ce02011146101fe5780638073f69c1461021c57806383cbac8b146102265780638d337b81146102445761010b565b80632b34af70116100de5780632b34af701461018857806330bfcb5f146101b85780634f396692146101c2578063534db0e2146101e05761010b565b806306f534ed146101105780630aab1f041461012e57806311eae3761461014c5780632372c9161461016a575b600080fd5b61011861031a565b6040516101259190611dd3565b60405180910390f35b610136610340565b6040516101439190611e24565b60405180910390f35b6101546103ce565b6040516101619190611dd3565b60405180910390f35b6101726103f4565b60405161017f9190611e24565b60405180910390f35b6101a2600480360381019061019d9190611c80565b610482565b6040516101af9190611dee565b60405180910390f35b6101c06104a2565b005b6101ca610689565b6040516101d79190611e24565b60405180910390f35b6101e8610717565b6040516101f59190611dd3565b60405180910390f35b61020661073d565b6040516102139190611e24565b60405180910390f35b6102246107cb565b005b61022e61149b565b60405161023b9190611dd3565b60405180910390f35b61025e60048036038101906102599190611c80565b6114c1565b60405161026b9190611e09565b60405180910390f35b61027c611517565b6040516102899190611e24565b60405180910390f35b61029a6115a5565b6040516102a79190611ec6565b60405180910390f35b6102ca60048036038101906102c59190611ca9565b6115ab565b005b6102e660048036038101906102e19190611c80565b611a1f565b6040516102f39190611e09565b60405180910390f35b610304611a3f565b6040516103119190611dd3565b60405180910390f35b600560009054906101000a900473ffffffffffffffffffffffffffffffffffffffff1681565b600a805461034d90611f9d565b80601f016020809104026020016040519081016040528092919081815260200182805461037990611f9d565b80156103c65780601f1061039b576101008083540402835291602001916103c6565b820191906000526020600020905b8154815290600101906020018083116103a957829003601f168201915b505050505081565b600460009054906101000a900473ffffffffffffffffffffffffffffffffffffffff1681565b6006805461040190611f9d565b80601f016020809104026020016040519081016040528092919081815260200182805461042d90611f9d565b801561047a5780601f1061044f5761010080835404028352916020019161047a565b820191906000526020600020905b81548152906001019060200180831161045d57829003601f168201915b505050505081565b600c6020528060005260406000206000915054906101000a900460ff1681565b60008054906101000a900460ff166104ef576040517f08c379a00000000000000000000000000000000000000000000000000000000081526004016104e690611e86565b60405180910390fd5b600060019054906101000a900473ffffffffffffffffffffffffffffffffffffffff1673ffffffffffffffffffffffffffffffffffffffff163373ffffffffffffffffffffffffffffffffffffffff1614806105985750600160009054906101000a900473ffffffffffffffffffffffffffffffffffffffff1673ffffffffffffffffffffffffffffffffffffffff163373ffffffffffffffffffffffffffffffffffffffff16145b806105f05750600260009054906101000a900473ffffffffffffffffffffffffffffffffffffffff1673ffffffffffffffffffffffffffffffffffffffff163373ffffffffffffffffffffffffffffffffffffffff16145b61062f576040517f08c379a000000000000000000000000000000000000000000000000000000000815260040161062690611e66565b60405180910390fd5b6001600c60003373ffffffffffffffffffffffffffffffffffffffff1673ffffffffffffffffffffffffffffffffffffffff16815260200190815260200160002060006101000a81548160ff021916908315150217905550565b6009805461069690611f9d565b80601f01602080910402602001604051908101604052809291908181526020018280546106c290611f9d565b801561070f5780601f106106e45761010080835404028352916020019161070f565b820191906000526020600020905b8154815290600101906020018083116106f257829003601f168201915b505050505081565b600160009054906101000a900473ffffffffffffffffffffffffffffffffffffffff1681565b6008805461074a90611f9d565b80601f016020809104026020016040519081016040528092919081815260200182805461077690611f9d565b80156107c35780601f10610798576101008083540402835291602001916107c3565b820191906000526020600020905b8154815290600101906020018083116107a657829003601f168201915b505050505081565b60008054906101000a900460ff16610818576040517f08c379a000000000000000000000000000000000000000000000000000000000815260040161080f90611e86565b60405180910390fd5b600060019054906101000a900473ffffffffffffffffffffffffffffffffffffffff1673ffffffffffffffffffffffffffffffffffffffff163373ffffffffffffffffffffffffffffffffffffffff1614806108c15750600160009054906101000a900473ffffffffffffffffffffffffffffffffffffffff1673ffffffffffffffffffffffffffffffffffffffff163373ffffffffffffffffffffffffffffffffffffffff16145b806109195750600260009054906101000a900473ffffffffffffffffffffffffffffffffffffffff1673ffffffffffffffffffffffffffffffffffffffff163373ffffffffffffffffffffffffffffffffffffffff16145b610958576040517f08c379a000000000000000000000000000000000000000000000000000000000815260040161094f90611e66565b60405180910390fd5b60016002811115610992577f4e487b7100000000000000000000000000000000000000000000000000000000600052602160045260246000fd5b600b60008060019054906101000a900473ffffffffffffffffffffffffffffffffffffffff1673ffffffffffffffffffffffffffffffffffffffff1673ffffffffffffffffffffffffffffffffffffffff16815260200190815260200160002060009054906101000a900460ff166002811115610a38577f4e487b7100000000000000000000000000000000000000000000000000000000600052602160045260246000fd5b148015610b23575060016002811115610a7a577f4e487b7100000000000000000000000000000000000000000000000000000000600052602160045260246000fd5b600b6000600160009054906101000a900473ffffffffffffffffffffffffffffffffffffffff1673ffffffffffffffffffffffffffffffffffffffff1673ffffffffffffffffffffffffffffffffffffffff16815260200190815260200160002060009054906101000a900460ff166002811115610b21577f4e487b7100000000000000000000000000000000000000000000000000000000600052602160045260246000fd5b145b80610cf5575060016002811115610b63577f4e487b7100000000000000000000000000000000000000000000000000000000600052602160045260246000fd5b600b60008060019054906101000a900473ffffffffffffffffffffffffffffffffffffffff1673ffffffffffffffffffffffffffffffffffffffff1673ffffffffffffffffffffffffffffffffffffffff16815260200190815260200160002060009054906101000a900460ff166002811115610c09577f4e487b7100000000000000000000000000000000000000000000000000000000600052602160045260246000fd5b148015610cf4575060016002811115610c4b577f4e487b7100000000000000000000000000000000000000000000000000000000600052602160045260246000fd5b600b6000600260009054906101000a900473ffffffffffffffffffffffffffffffffffffffff1673ffffffffffffffffffffffffffffffffffffffff1673ffffffffffffffffffffffffffffffffffffffff16815260200190815260200160002060009054906101000a900460ff166002811115610cf2577f4e487b7100000000000000000000000000000000000000000000000000000000600052602160045260246000fd5b145b5b80610ec8575060016002811115610d35577f4e487b7100000000000000000000000000000000000000000000000000000000600052602160045260246000fd5b600b6000600160009054906101000a900473ffffffffffffffffffffffffffffffffffffffff1673ffffffffffffffffffffffffffffffffffffffff1673ffffffffffffffffffffffffffffffffffffffff16815260200190815260200160002060009054906101000a900460ff166002811115610ddc577f4e487b7100000000000000000000000000000000000000000000000000000000600052602160045260246000fd5b148015610ec7575060016002811115610e1e577f4e487b7100000000000000000000000000000000000000000000000000000000600052602160045260246000fd5b600b6000600260009054906101000a900473ffffffffffffffffffffffffffffffffffffffff1673ffffffffffffffffffffffffffffffffffffffff1673ffffffffffffffffffffffffffffffffffffffff16815260200190815260200160002060009054906101000a900460ff166002811115610ec5577f4e487b7100000000000000000000000000000000000000000000000000000000600052602160045260246000fd5b145b5b15610efd57610ef8600460009054906101000a900473ffffffffffffffffffffffffffffffffffffffff16611a65565b611499565b600280811115610f36577f4e487b7100000000000000000000000000000000000000000000000000000000600052602160045260246000fd5b600b60008060019054906101000a900473ffffffffffffffffffffffffffffffffffffffff1673ffffffffffffffffffffffffffffffffffffffff1673ffffffffffffffffffffffffffffffffffffffff16815260200190815260200160002060009054906101000a900460ff166002811115610fdc577f4e487b7100000000000000000000000000000000000000000000000000000000600052602160045260246000fd5b1480156110c6575060028081111561101d577f4e487b7100000000000000000000000000000000000000000000000000000000600052602160045260246000fd5b600b6000600160009054906101000a900473ffffffffffffffffffffffffffffffffffffffff1673ffffffffffffffffffffffffffffffffffffffff1673ffffffffffffffffffffffffffffffffffffffff16815260200190815260200160002060009054906101000a900460ff1660028111156110c4577f4e487b7100000000000000000000000000000000000000000000000000000000600052602160045260246000fd5b145b806112965750600280811115611105577f4e487b7100000000000000000000000000000000000000000000000000000000600052602160045260246000fd5b600b60008060019054906101000a900473ffffffffffffffffffffffffffffffffffffffff1673ffffffffffffffffffffffffffffffffffffffff1673ffffffffffffffffffffffffffffffffffffffff16815260200190815260200160002060009054906101000a900460ff1660028111156111ab577f4e487b7100000000000000000000000000000000000000000000000000000000600052602160045260246000fd5b14801561129557506002808111156111ec577f4e487b7100000000000000000000000000000000000000000000000000000000600052602160045260246000fd5b600b6000600260009054906101000a900473ffffffffffffffffffffffffffffffffffffffff1673ffffffffffffffffffffffffffffffffffffffff1673ffffffffffffffffffffffffffffffffffffffff16815260200190815260200160002060009054906101000a900460ff166002811115611293577f4e487b7100000000000000000000000000000000000000000000000000000000600052602160045260246000fd5b145b5b8061146757506002808111156112d5577f4e487b7100000000000000000000000000000000000000000000000000000000600052602160045260246000fd5b600b6000600160009054906101000a900473ffffffffffffffffffffffffffffffffffffffff1673ffffffffffffffffffffffffffffffffffffffff1673ffffffffffffffffffffffffffffffffffffffff16815260200190815260200160002060009054906101000a900460ff16600281111561137c577f4e487b7100000000000000000000000000000000000000000000000000000000600052602160045260246000fd5b14801561146657506002808111156113bd577f4e487b7100000000000000000000000000000000000000000000000000000000600052602160045260246000fd5b600b6000600260009054906101000a900473ffffffffffffffffffffffffffffffffffffffff1673ffffffffffffffffffffffffffffffffffffffff1673ffffffffffffffffffffffffffffffffffffffff16815260200190815260200160002060009054906101000a900460ff166002811115611464577f4e487b7100000000000000000000000000000000000000000000000000000000600052602160045260246000fd5b145b5b1561149857611497600560009054906101000a900473ffffffffffffffffffffffffffffffffffffffff16611a65565b5b5b565b600060019054906101000a900473ffffffffffffffffffffffffffffffffffffffff1681565b6000600b60008373ffffffffffffffffffffffffffffffffffffffff1673ffffffffffffffffffffffffffffffffffffffff16815260200190815260200160002060009054906101000a900460ff169050919050565b6007805461152490611f9d565b80601f016020809104026020016040519081016040528092919081815260200182805461155090611f9d565b801561159d5780601f106115725761010080835404028352916020019161159d565b820191906000526020600020905b81548152906001019060200180831161158057829003601f168201915b505050505081565b60035481565b60008054906101000a900460ff166115f8576040517f08c379a00000000000000000000000000000000000000000000000000000000081526004016115ef90611e86565b60405180910390fd5b600060019054906101000a900473ffffffffffffffffffffffffffffffffffffffff1673ffffffffffffffffffffffffffffffffffffffff163373ffffffffffffffffffffffffffffffffffffffff1614806116a15750600160009054906101000a900473ffffffffffffffffffffffffffffffffffffffff1673ffffffffffffffffffffffffffffffffffffffff163373ffffffffffffffffffffffffffffffffffffffff16145b806116f95750600260009054906101000a900473ffffffffffffffffffffffffffffffffffffffff1673ffffffffffffffffffffffffffffffffffffffff163373ffffffffffffffffffffffffffffffffffffffff16145b611738576040517f08c379a000000000000000000000000000000000000000000000000000000000815260040161172f90611e66565b60405180910390fd5b600c60008060019054906101000a900473ffffffffffffffffffffffffffffffffffffffff1673ffffffffffffffffffffffffffffffffffffffff1673ffffffffffffffffffffffffffffffffffffffff16815260200190815260200160002060009054906101000a900460ff16801561181d5750600c6000600160009054906101000a900473ffffffffffffffffffffffffffffffffffffffff1673ffffffffffffffffffffffffffffffffffffffff1673ffffffffffffffffffffffffffffffffffffffff16815260200190815260200160002060009054906101000a900460ff165b80156118945750600c6000600260009054906101000a900473ffffffffffffffffffffffffffffffffffffffff1673ffffffffffffffffffffffffffffffffffffffff1673ffffffffffffffffffffffffffffffffffffffff16815260200190815260200160002060009054906101000a900460ff165b6118d3576040517f08c379a00000000000000000000000000000000000000000000000000000000081526004016118ca90611e46565b60405180910390fd5b6000600281111561190d577f4e487b7100000000000000000000000000000000000000000000000000000000600052602160045260246000fd5b816002811115611946577f4e487b7100000000000000000000000000000000000000000000000000000000600052602160045260246000fd5b1415611987576040517f08c379a000000000000000000000000000000000000000000000000000000000815260040161197e90611ea6565b60405180910390fd5b80600b60003373ffffffffffffffffffffffffffffffffffffffff1673ffffffffffffffffffffffffffffffffffffffff16815260200190815260200160002060006101000a81548160ff02191690836002811115611a0f577f4e487b7100000000000000000000000000000000000000000000000000000000600052602160045260246000fd5b0217905550611a1c6107cb565b50565b600b6020528060005260406000206000915054906101000a900460ff1681565b600260009054906101000a900473ffffffffffffffffffffffffffffffffffffffff1681565b60008054906101000a900460ff16611ab2576040517f08c379a0000000000000000000000000000000000000000000000000000000008152600401611aa990611e86565b60405180910390fd5b600060019054906101000a900473ffffffffffffffffffffffffffffffffffffffff1673ffffffffffffffffffffffffffffffffffffffff163373ffffffffffffffffffffffffffffffffffffffff161480611b5b5750600160009054906101000a900473ffffffffffffffffffffffffffffffffffffffff1673ffffffffffffffffffffffffffffffffffffffff163373ffffffffffffffffffffffffffffffffffffffff16145b80611bb35750600260009054906101000a900473ffffffffffffffffffffffffffffffffffffffff1673ffffffffffffffffffffffffffffffffffffffff163373ffffffffffffffffffffffffffffffffffffffff16145b611bf2576040517f08c379a0000000000000000000000000000000000000000000000000000000008152600401611be990611e66565b60405180910390fd5b60008060006101000a81548160ff0219169083151502179055508073ffffffffffffffffffffffffffffffffffffffff166108fc479081150290604051600060405180830381858888f19350505050158015611c52573d6000803e3d6000fd5b5050565b600081359050611c6581612142565b92915050565b600081359050611c7a81612159565b92915050565b600060208284031215611c9257600080fd5b6000611ca084828501611c56565b91505092915050565b600060208284031215611cbb57600080fd5b6000611cc984828501611c6b565b91505092915050565b611cdb81611efd565b82525050565b611cea81611f0f565b82525050565b611cf981611f58565b82525050565b6000611d0a82611ee1565b611d148185611eec565b9350611d24818560208601611f6a565b611d2d8161202d565b840191505092915050565b6000611d45601d83611eec565b9150611d508261203e565b602082019050919050565b6000611d68604383611eec565b9150611d7382612067565b606082019050919050565b6000611d8b601983611eec565b9150611d96826120dc565b602082019050919050565b6000611dae601683611eec565b9150611db982612105565b602082019050919050565b611dcd81611f4e565b82525050565b6000602082019050611de86000830184611cd2565b92915050565b6000602082019050611e036000830184611ce1565b92915050565b6000602082019050611e1e6000830184611cf0565b92915050565b60006020820190508181036000830152611e3e8184611cff565b905092915050565b60006020820190508181036000830152611e5f81611d38565b9050919050565b60006020820190508181036000830152611e7f81611d5b565b9050919050565b60006020820190508181036000830152611e9f81611d7e565b9050919050565b60006020820190508181036000830152611ebf81611da1565b9050919050565b6000602082019050611edb6000830184611dc4565b92915050565b600081519050919050565b600082825260208201905092915050565b6000611f0882611f2e565b9050919050565b60008115159050919050565b6000819050611f298261212e565b919050565b600073ffffffffffffffffffffffffffffffffffffffff82169050919050565b6000819050919050565b6000611f6382611f1b565b9050919050565b60005b83811015611f88578082015181840152602081019050611f6d565b83811115611f97576000848401525b50505050565b60006002820490506001821680611fb557607f821691505b60208210811415611fc957611fc8611ffe565b5b50919050565b7f4e487b7100000000000000000000000000000000000000000000000000000000600052602160045260246000fd5b7f4e487b7100000000000000000000000000000000000000000000000000000000600052602260045260246000fd5b6000601f19601f8301169050919050565b7f6e6f7420616c6c20706172746965732068617665206163636570746564000000600082015250565b7f6572726f723a206e6f7420707265646963746f722c206368616c6c656e67657260008201527f2c206f7220617262697465722e206d75737420626520706172747920746f206260208201527f65742e0000000000000000000000000000000000000000000000000000000000604082015250565b7f636f6e7472616374206e6f206c6f6e6765722061637469766500000000000000600082015250565b7f63616e277420766f746520666f72204e6f74566f746500000000000000000000600082015250565b6003811061213f5761213e611fcf565b5b50565b61214b81611efd565b811461215657600080fd5b50565b6003811061216657600080fd5b5056fea26469706673582212208e8915095b8d70930977357e71bca54edce3bd8aec0b5abef7e885580f4a2e0664736f6c63430008010033",
  "immutableReferences": {},
  "source": "// SPDX-License-Identifier: GPL-3.0\npragma solidity >=0.8.0 <0.9.0;\n\n/**\n * @title Long Bets, but Crypto TM\n * @dev Store & retrieve value in a variable\n */\n\ncontract LongBet {\n    // todo: add \"earliest date this can be voted on\"\n    // todo: add duration (e.g. this bet is over x years)\n    // todo: add way for arbiter and challenger to set their arguments\n    // todo: make both parties contribute to the prize pool (right now, only predictor stakes)\n    // todo: both parties need to agree on arbiter\n    // todo: change rewardees\n    \n    bool _isActive = true;\n    \n    address public predictor;\n    address public challenger;\n    address public arbiter; // person who casts the tie-breaker vote in whether a bet was resolved or not\n    \n    uint256 public stakes; // todo: delete this\n    address public predictorWins; // money sent here when predictor wins\n    address public challengerWins; // money sent here when challenger wins\n\n    string public prediction; // the actual prediction\n    \n    string public predictorArg;\n    string public challengerArg;\n    string public arbiterArg;\n    \n    string public detailedTerms;\n    \n    enum VoteState { NotVoted, VotedYes, VotedNo }\n    \n    mapping (address => VoteState) public votes; // stores the votes by individuals\n    mapping (address => bool) public accepted; // stores individuals accepting\n\n    \n    // https://ethereum.stackexchange.com/questions/82203/how-to-disable-a-contract-by-changing-some-internal-state-which-causes-all-funct\n    modifier checkActive() {\n        require (_isActive, \"contract no longer active\");\n        _;\n    }\n    \n    modifier checkAllAccepted() {\n        // disable voting until all have accepted the bet\n        require((accepted[predictor] && accepted[challenger] && accepted[arbiter]), \"not all parties have accepted\");\n        _;\n    }\n\n    modifier isParty() {\n        // disable voting until all have accepted the bet\n         require(\n         \tmsg.sender == predictor ||\n         \tmsg.sender == challenger ||\n         \tmsg.sender == arbiter,\n         \t\"error: not predictor, challenger, or arbiter. must be party to bet.\"\n         \t);\n        _;\n    }\n\n    // creates the LongBet\n    constructor(\n    \tstring memory arg_prediction,\n    \taddress arg_predictor,\n        address arg_challenger, \n        address arg_arbiter, \n        address pWins, \n        address cWins, \n        string memory pArg, \n        string memory t) \n        payable {\n        \trequire(msg.value > 0, \"must deposit stake\");\n        \trequire (keccak256(bytes(arg_prediction)) != keccak256(bytes(\"\")), \"must provide prediction!\");\n            require(arg_predictor != arg_challenger && arg_challenger != arg_arbiter && arg_arbiter != arg_predictor, \"predictor, challenger, arbiter must be different addresses\");\n            require(\n                keccak256(bytes(pArg)) != keccak256(bytes(\"\")) && \n                keccak256(bytes(t)) != keccak256(bytes(\"\")), \n                \"predictor's argument and terms shouldn't be empty\"\n                );\n                \n\n            prediction = arg_prediction;\n            \n            predictor = arg_predictor;\n            challenger = arg_challenger;\n            arbiter = arg_arbiter;\n            \n            // right now, these conditions are suboptimal: it's a hacky way of approximating null\n            // todo: improve this\n            predictorWins = pWins == address(0x0) ? arg_predictor: pWins;\n            challengerWins = cWins == address(0x0) ? arg_challenger: cWins;\n            \n            // todo: add assertion these aren't empty\n            predictorArg = pArg;\n            detailedTerms = t;\n    }\n    \n    function acceptBet() \n    public \n    checkActive\n    isParty {\n        accepted[msg.sender] = true;\n    }\n    \n    function vote(VoteState myVote) \n    public \n    checkActive \n    isParty\n    checkAllAccepted {\n        require(myVote != VoteState.NotVoted, \"can't vote for NotVote\"); // disable voting until all have accepted the bet\n        \n        votes[msg.sender] = myVote;\n        shouldComplete();\n        // todo: disallow anyone but the predictor/challenger/arbiter from accepting/voting\n    }\n    \n    // contract doesn't need to be active for this to work\n    // anybody should be able to call this\n    function getVote(address voter) \n    public \n    view \n    returns (VoteState){\n        return votes[voter];\n    }\n    \n    // todo: should this only run if a party to the bet runs it? by right, they shouldn't even be calling this\n    // i've put in the modifier. let's see how it works\n    function shouldComplete() \n    public \n    checkActive \n    isParty {\n        // majority voted yes = predictor won\n        if (\n            (votes[predictor] == VoteState.VotedYes && votes[challenger] == VoteState.VotedYes) ||\n            (votes[predictor] == VoteState.VotedYes && votes[arbiter] == VoteState.VotedYes) ||\n            (votes[challenger] == VoteState.VotedYes && votes[arbiter] == VoteState.VotedYes)\n            ) {\n                distributeReward(predictorWins);\n            } \n            \n        // majority voted no = challenger won\n        else if (\n            (votes[predictor] == VoteState.VotedNo && votes[challenger] == VoteState.VotedNo) ||\n            (votes[predictor] == VoteState.VotedNo && votes[arbiter] == VoteState.VotedNo) ||\n            (votes[challenger] == VoteState.VotedNo && votes[arbiter] == VoteState.VotedNo)\n            ) {\n                distributeReward(challengerWins);\n            }\n    }\n    \n    // todo: is this a security vulnerability? aka could someone else just trigger this and end bet prematurely?\n    function distributeReward(address rewardee) \n    private \n    checkActive \n    isParty {\n        // send all money to this dude and deactivate contract\n        _isActive = false;\n        // todo: should i stop using transfer? see: https://consensys.net/diligence/blog/2019/09/stop-using-soliditys-transfer-now/\n        payable(rewardee).transfer(address(this).balance);\n    }\n    \n    /* \n    TODO: create this funcs\n    */\n    \n    // edit a bet?\n}\n\n",
  "sourcePath": "/Users/khushjammu/GitHub/longbets/contracts/LongBet.sol",
  "compiler": {
    "name": "solc",
    "version": "0.8.1+commit.df193b15.Emscripten.clang"
  },
  "schemaVersion": "3.3.4",
  "updatedAt": "2021-02-14T04:22:19.718Z",
  "devdoc": {
    "details": "Store & retrieve value in a variable",
    "kind": "dev",
    "methods": {},
    "title": "Long Bets, but Crypto TM",
    "version": 1
  },
  "userdoc": {
    "kind": "user",
    "methods": {},
    "version": 1
  }
}