{
  "contractName": "LongBet",
  "abi": [
    {
      "inputs": [
        {
          "internalType": "string",
          "name": "arg_prediction",
          "type": "string"
        },
        {
          "internalType": "address",
          "name": "arg_predictor",
          "type": "address"
        },
        {
          "internalType": "address",
          "name": "arg_challenger",
          "type": "address"
        },
        {
          "internalType": "address",
          "name": "arg_arbiter",
          "type": "address"
        },
        {
          "internalType": "address",
          "name": "pWins",
          "type": "address"
        },
        {
          "internalType": "address",
          "name": "cWins",
          "type": "address"
        },
        {
          "internalType": "string",
          "name": "pArg",
          "type": "string"
        },
        {
          "internalType": "string",
          "name": "t",
          "type": "string"
        }
      ],
      "stateMutability": "payable",
      "type": "constructor"
    },
    {
      "inputs": [
        {
          "internalType": "address",
          "name": "",
          "type": "address"
        }
      ],
      "name": "accepted",
      "outputs": [
        {
          "internalType": "bool",
          "name": "",
          "type": "bool"
        }
      ],
      "stateMutability": "view",
      "type": "function"
    },
    {
      "inputs": [],
      "name": "arbiter",
      "outputs": [
        {
          "internalType": "address",
          "name": "",
          "type": "address"
        }
      ],
      "stateMutability": "view",
      "type": "function"
    },
    {
      "inputs": [],
      "name": "arbiterArg",
      "outputs": [
        {
          "internalType": "string",
          "name": "",
          "type": "string"
        }
      ],
      "stateMutability": "view",
      "type": "function"
    },
    {
      "inputs": [],
      "name": "challenger",
      "outputs": [
        {
          "internalType": "address",
          "name": "",
          "type": "address"
        }
      ],
      "stateMutability": "view",
      "type": "function"
    },
    {
      "inputs": [],
      "name": "challengerArg",
      "outputs": [
        {
          "internalType": "string",
          "name": "",
          "type": "string"
        }
      ],
      "stateMutability": "view",
      "type": "function"
    },
    {
      "inputs": [],
      "name": "challengerWins",
      "outputs": [
        {
          "internalType": "address",
          "name": "",
          "type": "address"
        }
      ],
      "stateMutability": "view",
      "type": "function"
    },
    {
      "inputs": [],
      "name": "detailedTerms",
      "outputs": [
        {
          "internalType": "string",
          "name": "",
          "type": "string"
        }
      ],
      "stateMutability": "view",
      "type": "function"
    },
    {
      "inputs": [],
      "name": "prediction",
      "outputs": [
        {
          "internalType": "string",
          "name": "",
          "type": "string"
        }
      ],
      "stateMutability": "view",
      "type": "function"
    },
    {
      "inputs": [],
      "name": "predictor",
      "outputs": [
        {
          "internalType": "address",
          "name": "",
          "type": "address"
        }
      ],
      "stateMutability": "view",
      "type": "function"
    },
    {
      "inputs": [],
      "name": "predictorArg",
      "outputs": [
        {
          "internalType": "string",
          "name": "",
          "type": "string"
        }
      ],
      "stateMutability": "view",
      "type": "function"
    },
    {
      "inputs": [],
      "name": "predictorWins",
      "outputs": [
        {
          "internalType": "address",
          "name": "",
          "type": "address"
        }
      ],
      "stateMutability": "view",
      "type": "function"
    },
    {
      "inputs": [],
      "name": "stakes",
      "outputs": [
        {
          "internalType": "uint256",
          "name": "",
          "type": "uint256"
        }
      ],
      "stateMutability": "view",
      "type": "function"
    },
    {
      "inputs": [
        {
          "internalType": "address",
          "name": "",
          "type": "address"
        }
      ],
      "name": "votes",
      "outputs": [
        {
          "internalType": "enum LongBet.VoteState",
          "name": "",
          "type": "uint8"
        }
      ],
      "stateMutability": "view",
      "type": "function"
    },
    {
      "inputs": [],
      "name": "acceptBet",
      "outputs": [],
      "stateMutability": "payable",
      "type": "function"
    },
    {
      "inputs": [
        {
          "internalType": "enum LongBet.VoteState",
          "name": "myVote",
          "type": "uint8"
        }
      ],
      "name": "vote",
      "outputs": [],
      "stateMutability": "nonpayable",
      "type": "function"
    },
    {
      "inputs": [
        {
          "internalType": "address",
          "name": "voter",
          "type": "address"
        }
      ],
      "name": "getVote",
      "outputs": [
        {
          "internalType": "enum LongBet.VoteState",
          "name": "",
          "type": "uint8"
        }
      ],
      "stateMutability": "view",
      "type": "function"
    },
    {
      "inputs": [],
      "name": "shouldComplete",
      "outputs": [],
      "stateMutability": "nonpayable",
      "type": "function"
    }
  ],
  "bytecode": "0x608060405260016000806101000a81548160ff02191690831515021790555060405162002e4538038062002e458339818101604052810190620000439190620005b5565b6000341162000089576040517f08c379a000000000000000000000000000000000000000000000000000000000815260040162000080906200075f565b60405180910390fd5b604051806020016040528060008152508051906020012088805190602001201415620000ec576040517f08c379a0000000000000000000000000000000000000000000000000000000008152600401620000e390620007c5565b60405180910390fd5b8573ffffffffffffffffffffffffffffffffffffffff168773ffffffffffffffffffffffffffffffffffffffff16141580156200015557508473ffffffffffffffffffffffffffffffffffffffff168673ffffffffffffffffffffffffffffffffffffffff1614155b80156200018e57508673ffffffffffffffffffffffffffffffffffffffff168573ffffffffffffffffffffffffffffffffffffffff1614155b620001d0576040517f08c379a0000000000000000000000000000000000000000000000000000000008152600401620001c79062000781565b60405180910390fd5b60405180602001604052806000815250805190602001208280519060200120141580156200021b57506040518060200160405280600081525080519060200120818051906020012014155b6200025d576040517f08c379a00000000000000000000000000000000000000000000000000000000081526004016200025490620007a3565b60405180910390fd5b3460038190555087600690805190602001906200027c9291906200047c565b5086600060016101000a81548173ffffffffffffffffffffffffffffffffffffffff021916908373ffffffffffffffffffffffffffffffffffffffff16021790555085600160006101000a81548173ffffffffffffffffffffffffffffffffffffffff021916908373ffffffffffffffffffffffffffffffffffffffff16021790555084600260006101000a81548173ffffffffffffffffffffffffffffffffffffffff021916908373ffffffffffffffffffffffffffffffffffffffff160217905550600073ffffffffffffffffffffffffffffffffffffffff168473ffffffffffffffffffffffffffffffffffffffff16146200037c57836200037e565b865b600460006101000a81548173ffffffffffffffffffffffffffffffffffffffff021916908373ffffffffffffffffffffffffffffffffffffffff160217905550600073ffffffffffffffffffffffffffffffffffffffff168373ffffffffffffffffffffffffffffffffffffffff1614620003fa5782620003fc565b855b600560006101000a81548173ffffffffffffffffffffffffffffffffffffffff021916908373ffffffffffffffffffffffffffffffffffffffff1602179055508160079080519060200190620004549291906200047c565b5080600a90805190602001906200046d9291906200047c565b50505050505050505062000aa6565b8280546200048a90620008c1565b90600052602060002090601f016020900481019282620004ae5760008555620004fa565b82601f10620004c957805160ff1916838001178555620004fa565b82800160010185558215620004fa579182015b82811115620004f9578251825591602001919060010190620004dc565b5b5090506200050991906200050d565b5090565b5b80821115620005285760008160009055506001016200050e565b5090565b6000620005436200053d8462000810565b620007e7565b9050828152602081018484840111156200055c57600080fd5b620005698482856200088b565b509392505050565b600081519050620005828162000a8c565b92915050565b600082601f8301126200059a57600080fd5b8151620005ac8482602086016200052c565b91505092915050565b600080600080600080600080610100898b031215620005d357600080fd5b600089015167ffffffffffffffff811115620005ee57600080fd5b620005fc8b828c0162000588565b98505060206200060f8b828c0162000571565b9750506040620006228b828c0162000571565b9650506060620006358b828c0162000571565b9550506080620006488b828c0162000571565b94505060a06200065b8b828c0162000571565b93505060c089015167ffffffffffffffff8111156200067957600080fd5b620006878b828c0162000588565b92505060e089015167ffffffffffffffff811115620006a557600080fd5b620006b38b828c0162000588565b9150509295985092959890939650565b6000620006d260128362000846565b9150620006df826200099c565b602082019050919050565b6000620006f9603a8362000846565b91506200070682620009c5565b604082019050919050565b60006200072060318362000846565b91506200072d8262000a14565b604082019050919050565b60006200074760188362000846565b9150620007548262000a63565b602082019050919050565b600060208201905081810360008301526200077a81620006c3565b9050919050565b600060208201905081810360008301526200079c81620006ea565b9050919050565b60006020820190508181036000830152620007be8162000711565b9050919050565b60006020820190508181036000830152620007e08162000738565b9050919050565b6000620007f362000806565b9050620008018282620008f7565b919050565b6000604051905090565b600067ffffffffffffffff8211156200082e576200082d6200095c565b5b62000839826200098b565b9050602081019050919050565b600082825260208201905092915050565b600062000864826200086b565b9050919050565b600073ffffffffffffffffffffffffffffffffffffffff82169050919050565b60005b83811015620008ab5780820151818401526020810190506200088e565b83811115620008bb576000848401525b50505050565b60006002820490506001821680620008da57607f821691505b60208210811415620008f157620008f06200092d565b5b50919050565b62000902826200098b565b810181811067ffffffffffffffff821117156200092457620009236200095c565b5b80604052505050565b7f4e487b7100000000000000000000000000000000000000000000000000000000600052602260045260246000fd5b7f4e487b7100000000000000000000000000000000000000000000000000000000600052604160045260246000fd5b6000601f19601f8301169050919050565b7f6d757374206465706f736974207374616b650000000000000000000000000000600082015250565b7f707265646963746f722c206368616c6c656e6765722c2061726269746572206d60008201527f75737420626520646966666572656e7420616464726573736573000000000000602082015250565b7f707265646963746f72277320617267756d656e7420616e64207465726d73207360008201527f686f756c646e277420626520656d707479000000000000000000000000000000602082015250565b7f6d7573742070726f766964652070726564696374696f6e210000000000000000600082015250565b62000a978162000857565b811462000aa357600080fd5b50565b61238f8062000ab66000396000f3fe6080604052600436106100fe5760003560e01c80635ce0201111610095578063a621372d11610064578063a621372d146102f6578063ad09c7ce14610321578063b3f98adc1461034c578063d8bff5a514610375578063fe25e00a146103b2576100fe565b80635ce020111461024c5780638073f69c1461027757806383cbac8b1461028e5780638d337b81146102b9576100fe565b80632b34af70116100d15780632b34af70146101af57806330bfcb5f146101ec5780634f396692146101f6578063534db0e214610221576100fe565b806306f534ed146101035780630aab1f041461012e57806311eae376146101595780632372c91614610184575b600080fd5b34801561010f57600080fd5b506101186103dd565b6040516101259190611f54565b60405180910390f35b34801561013a57600080fd5b50610143610403565b6040516101509190611fa5565b60405180910390f35b34801561016557600080fd5b5061016e610491565b60405161017b9190611f54565b60405180910390f35b34801561019057600080fd5b506101996104b7565b6040516101a69190611fa5565b60405180910390f35b3480156101bb57600080fd5b506101d660048036038101906101d19190611dde565b610545565b6040516101e39190611f6f565b60405180910390f35b6101f4610565565b005b34801561020257600080fd5b5061020b6107e7565b6040516102189190611fa5565b60405180910390f35b34801561022d57600080fd5b50610236610875565b6040516102439190611f54565b60405180910390f35b34801561025857600080fd5b5061026161089b565b60405161026e9190611fa5565b60405180910390f35b34801561028357600080fd5b5061028c610929565b005b34801561029a57600080fd5b506102a36115f9565b6040516102b09190611f54565b60405180910390f35b3480156102c557600080fd5b506102e060048036038101906102db9190611dde565b61161f565b6040516102ed9190611f8a565b60405180910390f35b34801561030257600080fd5b5061030b611675565b6040516103189190611fa5565b60405180910390f35b34801561032d57600080fd5b50610336611703565b6040516103439190612067565b60405180910390f35b34801561035857600080fd5b50610373600480360381019061036e9190611e07565b611709565b005b34801561038157600080fd5b5061039c60048036038101906103979190611dde565b611b7d565b6040516103a99190611f8a565b60405180910390f35b3480156103be57600080fd5b506103c7611b9d565b6040516103d49190611f54565b60405180910390f35b600560009054906101000a900473ffffffffffffffffffffffffffffffffffffffff1681565b600a80546104109061213e565b80601f016020809104026020016040519081016040528092919081815260200182805461043c9061213e565b80156104895780601f1061045e57610100808354040283529160200191610489565b820191906000526020600020905b81548152906001019060200180831161046c57829003601f168201915b505050505081565b600460009054906101000a900473ffffffffffffffffffffffffffffffffffffffff1681565b600680546104c49061213e565b80601f01602080910402602001604051908101604052809291908181526020018280546104f09061213e565b801561053d5780601f106105125761010080835404028352916020019161053d565b820191906000526020600020905b81548152906001019060200180831161052057829003601f168201915b505050505081565b600c6020528060005260406000206000915054906101000a900460ff1681565b60008054906101000a900460ff166105b2576040517f08c379a00000000000000000000000000000000000000000000000000000000081526004016105a990612007565b60405180910390fd5b600060019054906101000a900473ffffffffffffffffffffffffffffffffffffffff1673ffffffffffffffffffffffffffffffffffffffff163373ffffffffffffffffffffffffffffffffffffffff16148061065b5750600160009054906101000a900473ffffffffffffffffffffffffffffffffffffffff1673ffffffffffffffffffffffffffffffffffffffff163373ffffffffffffffffffffffffffffffffffffffff16145b806106b35750600260009054906101000a900473ffffffffffffffffffffffffffffffffffffffff1673ffffffffffffffffffffffffffffffffffffffff163373ffffffffffffffffffffffffffffffffffffffff16145b6106f2576040517f08c379a00000000000000000000000000000000000000000000000000000000081526004016106e990611fe7565b60405180910390fd5b600160009054906101000a900473ffffffffffffffffffffffffffffffffffffffff1673ffffffffffffffffffffffffffffffffffffffff163373ffffffffffffffffffffffffffffffffffffffff16141561078d57600354341461078c576040517f08c379a000000000000000000000000000000000000000000000000000000000815260040161078390612047565b60405180910390fd5b5b6001600c60003373ffffffffffffffffffffffffffffffffffffffff1673ffffffffffffffffffffffffffffffffffffffff16815260200190815260200160002060006101000a81548160ff021916908315150217905550565b600980546107f49061213e565b80601f01602080910402602001604051908101604052809291908181526020018280546108209061213e565b801561086d5780601f106108425761010080835404028352916020019161086d565b820191906000526020600020905b81548152906001019060200180831161085057829003601f168201915b505050505081565b600160009054906101000a900473ffffffffffffffffffffffffffffffffffffffff1681565b600880546108a89061213e565b80601f01602080910402602001604051908101604052809291908181526020018280546108d49061213e565b80156109215780601f106108f657610100808354040283529160200191610921565b820191906000526020600020905b81548152906001019060200180831161090457829003601f168201915b505050505081565b60008054906101000a900460ff16610976576040517f08c379a000000000000000000000000000000000000000000000000000000000815260040161096d90612007565b60405180910390fd5b600060019054906101000a900473ffffffffffffffffffffffffffffffffffffffff1673ffffffffffffffffffffffffffffffffffffffff163373ffffffffffffffffffffffffffffffffffffffff161480610a1f5750600160009054906101000a900473ffffffffffffffffffffffffffffffffffffffff1673ffffffffffffffffffffffffffffffffffffffff163373ffffffffffffffffffffffffffffffffffffffff16145b80610a775750600260009054906101000a900473ffffffffffffffffffffffffffffffffffffffff1673ffffffffffffffffffffffffffffffffffffffff163373ffffffffffffffffffffffffffffffffffffffff16145b610ab6576040517f08c379a0000000000000000000000000000000000000000000000000000000008152600401610aad90611fe7565b60405180910390fd5b60016002811115610af0577f4e487b7100000000000000000000000000000000000000000000000000000000600052602160045260246000fd5b600b60008060019054906101000a900473ffffffffffffffffffffffffffffffffffffffff1673ffffffffffffffffffffffffffffffffffffffff1673ffffffffffffffffffffffffffffffffffffffff16815260200190815260200160002060009054906101000a900460ff166002811115610b96577f4e487b7100000000000000000000000000000000000000000000000000000000600052602160045260246000fd5b148015610c81575060016002811115610bd8577f4e487b7100000000000000000000000000000000000000000000000000000000600052602160045260246000fd5b600b6000600160009054906101000a900473ffffffffffffffffffffffffffffffffffffffff1673ffffffffffffffffffffffffffffffffffffffff1673ffffffffffffffffffffffffffffffffffffffff16815260200190815260200160002060009054906101000a900460ff166002811115610c7f577f4e487b7100000000000000000000000000000000000000000000000000000000600052602160045260246000fd5b145b80610e53575060016002811115610cc1577f4e487b7100000000000000000000000000000000000000000000000000000000600052602160045260246000fd5b600b60008060019054906101000a900473ffffffffffffffffffffffffffffffffffffffff1673ffffffffffffffffffffffffffffffffffffffff1673ffffffffffffffffffffffffffffffffffffffff16815260200190815260200160002060009054906101000a900460ff166002811115610d67577f4e487b7100000000000000000000000000000000000000000000000000000000600052602160045260246000fd5b148015610e52575060016002811115610da9577f4e487b7100000000000000000000000000000000000000000000000000000000600052602160045260246000fd5b600b6000600260009054906101000a900473ffffffffffffffffffffffffffffffffffffffff1673ffffffffffffffffffffffffffffffffffffffff1673ffffffffffffffffffffffffffffffffffffffff16815260200190815260200160002060009054906101000a900460ff166002811115610e50577f4e487b7100000000000000000000000000000000000000000000000000000000600052602160045260246000fd5b145b5b80611026575060016002811115610e93577f4e487b7100000000000000000000000000000000000000000000000000000000600052602160045260246000fd5b600b6000600160009054906101000a900473ffffffffffffffffffffffffffffffffffffffff1673ffffffffffffffffffffffffffffffffffffffff1673ffffffffffffffffffffffffffffffffffffffff16815260200190815260200160002060009054906101000a900460ff166002811115610f3a577f4e487b7100000000000000000000000000000000000000000000000000000000600052602160045260246000fd5b148015611025575060016002811115610f7c577f4e487b7100000000000000000000000000000000000000000000000000000000600052602160045260246000fd5b600b6000600260009054906101000a900473ffffffffffffffffffffffffffffffffffffffff1673ffffffffffffffffffffffffffffffffffffffff1673ffffffffffffffffffffffffffffffffffffffff16815260200190815260200160002060009054906101000a900460ff166002811115611023577f4e487b7100000000000000000000000000000000000000000000000000000000600052602160045260246000fd5b145b5b1561105b57611056600460009054906101000a900473ffffffffffffffffffffffffffffffffffffffff16611bc3565b6115f7565b600280811115611094577f4e487b7100000000000000000000000000000000000000000000000000000000600052602160045260246000fd5b600b60008060019054906101000a900473ffffffffffffffffffffffffffffffffffffffff1673ffffffffffffffffffffffffffffffffffffffff1673ffffffffffffffffffffffffffffffffffffffff16815260200190815260200160002060009054906101000a900460ff16600281111561113a577f4e487b7100000000000000000000000000000000000000000000000000000000600052602160045260246000fd5b148015611224575060028081111561117b577f4e487b7100000000000000000000000000000000000000000000000000000000600052602160045260246000fd5b600b6000600160009054906101000a900473ffffffffffffffffffffffffffffffffffffffff1673ffffffffffffffffffffffffffffffffffffffff1673ffffffffffffffffffffffffffffffffffffffff16815260200190815260200160002060009054906101000a900460ff166002811115611222577f4e487b7100000000000000000000000000000000000000000000000000000000600052602160045260246000fd5b145b806113f45750600280811115611263577f4e487b7100000000000000000000000000000000000000000000000000000000600052602160045260246000fd5b600b60008060019054906101000a900473ffffffffffffffffffffffffffffffffffffffff1673ffffffffffffffffffffffffffffffffffffffff1673ffffffffffffffffffffffffffffffffffffffff16815260200190815260200160002060009054906101000a900460ff166002811115611309577f4e487b7100000000000000000000000000000000000000000000000000000000600052602160045260246000fd5b1480156113f3575060028081111561134a577f4e487b7100000000000000000000000000000000000000000000000000000000600052602160045260246000fd5b600b6000600260009054906101000a900473ffffffffffffffffffffffffffffffffffffffff1673ffffffffffffffffffffffffffffffffffffffff1673ffffffffffffffffffffffffffffffffffffffff16815260200190815260200160002060009054906101000a900460ff1660028111156113f1577f4e487b7100000000000000000000000000000000000000000000000000000000600052602160045260246000fd5b145b5b806115c55750600280811115611433577f4e487b7100000000000000000000000000000000000000000000000000000000600052602160045260246000fd5b600b6000600160009054906101000a900473ffffffffffffffffffffffffffffffffffffffff1673ffffffffffffffffffffffffffffffffffffffff1673ffffffffffffffffffffffffffffffffffffffff16815260200190815260200160002060009054906101000a900460ff1660028111156114da577f4e487b7100000000000000000000000000000000000000000000000000000000600052602160045260246000fd5b1480156115c4575060028081111561151b577f4e487b7100000000000000000000000000000000000000000000000000000000600052602160045260246000fd5b600b6000600260009054906101000a900473ffffffffffffffffffffffffffffffffffffffff1673ffffffffffffffffffffffffffffffffffffffff1673ffffffffffffffffffffffffffffffffffffffff16815260200190815260200160002060009054906101000a900460ff1660028111156115c2577f4e487b7100000000000000000000000000000000000000000000000000000000600052602160045260246000fd5b145b5b156115f6576115f5600560009054906101000a900473ffffffffffffffffffffffffffffffffffffffff16611bc3565b5b5b565b600060019054906101000a900473ffffffffffffffffffffffffffffffffffffffff1681565b6000600b60008373ffffffffffffffffffffffffffffffffffffffff1673ffffffffffffffffffffffffffffffffffffffff16815260200190815260200160002060009054906101000a900460ff169050919050565b600780546116829061213e565b80601f01602080910402602001604051908101604052809291908181526020018280546116ae9061213e565b80156116fb5780601f106116d0576101008083540402835291602001916116fb565b820191906000526020600020905b8154815290600101906020018083116116de57829003601f168201915b505050505081565b60035481565b60008054906101000a900460ff16611756576040517f08c379a000000000000000000000000000000000000000000000000000000000815260040161174d90612007565b60405180910390fd5b600060019054906101000a900473ffffffffffffffffffffffffffffffffffffffff1673ffffffffffffffffffffffffffffffffffffffff163373ffffffffffffffffffffffffffffffffffffffff1614806117ff5750600160009054906101000a900473ffffffffffffffffffffffffffffffffffffffff1673ffffffffffffffffffffffffffffffffffffffff163373ffffffffffffffffffffffffffffffffffffffff16145b806118575750600260009054906101000a900473ffffffffffffffffffffffffffffffffffffffff1673ffffffffffffffffffffffffffffffffffffffff163373ffffffffffffffffffffffffffffffffffffffff16145b611896576040517f08c379a000000000000000000000000000000000000000000000000000000000815260040161188d90611fe7565b60405180910390fd5b600c60008060019054906101000a900473ffffffffffffffffffffffffffffffffffffffff1673ffffffffffffffffffffffffffffffffffffffff1673ffffffffffffffffffffffffffffffffffffffff16815260200190815260200160002060009054906101000a900460ff16801561197b5750600c6000600160009054906101000a900473ffffffffffffffffffffffffffffffffffffffff1673ffffffffffffffffffffffffffffffffffffffff1673ffffffffffffffffffffffffffffffffffffffff16815260200190815260200160002060009054906101000a900460ff165b80156119f25750600c6000600260009054906101000a900473ffffffffffffffffffffffffffffffffffffffff1673ffffffffffffffffffffffffffffffffffffffff1673ffffffffffffffffffffffffffffffffffffffff16815260200190815260200160002060009054906101000a900460ff165b611a31576040517f08c379a0000000000000000000000000000000000000000000000000000000008152600401611a2890611fc7565b60405180910390fd5b60006002811115611a6b577f4e487b7100000000000000000000000000000000000000000000000000000000600052602160045260246000fd5b816002811115611aa4577f4e487b7100000000000000000000000000000000000000000000000000000000600052602160045260246000fd5b1415611ae5576040517f08c379a0000000000000000000000000000000000000000000000000000000008152600401611adc90612027565b60405180910390fd5b80600b60003373ffffffffffffffffffffffffffffffffffffffff1673ffffffffffffffffffffffffffffffffffffffff16815260200190815260200160002060006101000a81548160ff02191690836002811115611b6d577f4e487b7100000000000000000000000000000000000000000000000000000000600052602160045260246000fd5b0217905550611b7a610929565b50565b600b6020528060005260406000206000915054906101000a900460ff1681565b600260009054906101000a900473ffffffffffffffffffffffffffffffffffffffff1681565b60008054906101000a900460ff16611c10576040517f08c379a0000000000000000000000000000000000000000000000000000000008152600401611c0790612007565b60405180910390fd5b600060019054906101000a900473ffffffffffffffffffffffffffffffffffffffff1673ffffffffffffffffffffffffffffffffffffffff163373ffffffffffffffffffffffffffffffffffffffff161480611cb95750600160009054906101000a900473ffffffffffffffffffffffffffffffffffffffff1673ffffffffffffffffffffffffffffffffffffffff163373ffffffffffffffffffffffffffffffffffffffff16145b80611d115750600260009054906101000a900473ffffffffffffffffffffffffffffffffffffffff1673ffffffffffffffffffffffffffffffffffffffff163373ffffffffffffffffffffffffffffffffffffffff16145b611d50576040517f08c379a0000000000000000000000000000000000000000000000000000000008152600401611d4790611fe7565b60405180910390fd5b60008060006101000a81548160ff0219169083151502179055508073ffffffffffffffffffffffffffffffffffffffff166108fc479081150290604051600060405180830381858888f19350505050158015611db0573d6000803e3d6000fd5b5050565b600081359050611dc381612332565b92915050565b600081359050611dd881612349565b92915050565b600060208284031215611df057600080fd5b6000611dfe84828501611db4565b91505092915050565b600060208284031215611e1957600080fd5b6000611e2784828501611dc9565b91505092915050565b611e398161209e565b82525050565b611e48816120b0565b82525050565b611e57816120f9565b82525050565b6000611e6882612082565b611e72818561208d565b9350611e8281856020860161210b565b611e8b816121ce565b840191505092915050565b6000611ea3601d8361208d565b9150611eae826121df565b602082019050919050565b6000611ec660438361208d565b9150611ed182612208565b606082019050919050565b6000611ee960198361208d565b9150611ef48261227d565b602082019050919050565b6000611f0c60168361208d565b9150611f17826122a6565b602082019050919050565b6000611f2f602d8361208d565b9150611f3a826122cf565b604082019050919050565b611f4e816120ef565b82525050565b6000602082019050611f696000830184611e30565b92915050565b6000602082019050611f846000830184611e3f565b92915050565b6000602082019050611f9f6000830184611e4e565b92915050565b60006020820190508181036000830152611fbf8184611e5d565b905092915050565b60006020820190508181036000830152611fe081611e96565b9050919050565b6000602082019050818103600083015261200081611eb9565b9050919050565b6000602082019050818103600083015261202081611edc565b9050919050565b6000602082019050818103600083015261204081611eff565b9050919050565b6000602082019050818103600083015261206081611f22565b9050919050565b600060208201905061207c6000830184611f45565b92915050565b600081519050919050565b600082825260208201905092915050565b60006120a9826120cf565b9050919050565b60008115159050919050565b60008190506120ca8261231e565b919050565b600073ffffffffffffffffffffffffffffffffffffffff82169050919050565b6000819050919050565b6000612104826120bc565b9050919050565b60005b8381101561212957808201518184015260208101905061210e565b83811115612138576000848401525b50505050565b6000600282049050600182168061215657607f821691505b6020821081141561216a5761216961219f565b5b50919050565b7f4e487b7100000000000000000000000000000000000000000000000000000000600052602160045260246000fd5b7f4e487b7100000000000000000000000000000000000000000000000000000000600052602260045260246000fd5b6000601f19601f8301169050919050565b7f6e6f7420616c6c20706172746965732068617665206163636570746564000000600082015250565b7f6572726f723a206e6f7420707265646963746f722c206368616c6c656e67657260008201527f2c206f7220617262697465722e206d75737420626520706172747920746f206260208201527f65742e0000000000000000000000000000000000000000000000000000000000604082015250565b7f636f6e7472616374206e6f206c6f6e6765722061637469766500000000000000600082015250565b7f63616e277420766f746520666f72204e6f74566f746500000000000000000000600082015250565b7f6d757374206465706f73697420616e20657175616c207374616b6520746f207460008201527f686520707265646963746f722100000000000000000000000000000000000000602082015250565b6003811061232f5761232e612170565b5b50565b61233b8161209e565b811461234657600080fd5b50565b6003811061235657600080fd5b5056fea264697066735822122056286496cdad59ae701dcc9b683c2730563cc8795611765efd56831b270598e564736f6c63430008010033",
  "immutableReferences": {},
  "source": "// SPDX-License-Identifier: GPL-3.0\npragma solidity >=0.8.0 <0.9.0;\n\n/**\n * @title Long Bets, but Crypto TM\n * @dev Store & retrieve value in a variable\n */\n\ncontract LongBet {\n    // todo: add \"earliest date this can be voted on\"\n    // todo: add duration (e.g. this bet is over x years)\n    // todo: add way for arbiter and challenger to set their arguments\n    // todo: make both parties contribute to the prize pool (right now, only predictor stakes)\n    // todo: both parties need to agree on arbiter\n    // todo: change rewardees\n    \n    bool _isActive = true;\n    \n    address public predictor;\n    address public challenger;\n    address public arbiter; // person who casts the tie-breaker vote in whether a bet was resolved or not\n    \n    uint256 public stakes; // todo: delete this\n    address public predictorWins; // money sent here when predictor wins\n    address public challengerWins; // money sent here when challenger wins\n\n    string public prediction; // the actual prediction\n    \n    string public predictorArg;\n    string public challengerArg;\n    string public arbiterArg;\n    \n    string public detailedTerms;\n    \n    enum VoteState { NotVoted, VotedYes, VotedNo }\n    \n    mapping (address => VoteState) public votes; // stores the votes by individuals\n    mapping (address => bool) public accepted; // stores individuals accepting\n\n    \n    // https://ethereum.stackexchange.com/questions/82203/how-to-disable-a-contract-by-changing-some-internal-state-which-causes-all-funct\n    modifier checkActive() {\n        require (_isActive, \"contract no longer active\");\n        _;\n    }\n    \n    modifier checkAllAccepted() {\n        // disable voting until all have accepted the bet\n        require((accepted[predictor] && accepted[challenger] && accepted[arbiter]), \"not all parties have accepted\");\n        _;\n    }\n\n    modifier isParty() {\n        // disable voting until all have accepted the bet\n         require(\n         \tmsg.sender == predictor ||\n         \tmsg.sender == challenger ||\n         \tmsg.sender == arbiter,\n         \t\"error: not predictor, challenger, or arbiter. must be party to bet.\"\n         \t);\n        _;\n    }\n\n    // creates the LongBet\n    constructor(\n    \tstring memory arg_prediction,\n    \taddress arg_predictor,\n        address arg_challenger, \n        address arg_arbiter, \n        address pWins, \n        address cWins, \n        string memory pArg, \n        string memory t) \n        payable {\n        \trequire(msg.value > 0, \"must deposit stake\");\n        \trequire (keccak256(bytes(arg_prediction)) != keccak256(bytes(\"\")), \"must provide prediction!\");\n            require(arg_predictor != arg_challenger && arg_challenger != arg_arbiter && arg_arbiter != arg_predictor, \"predictor, challenger, arbiter must be different addresses\");\n            require(\n                keccak256(bytes(pArg)) != keccak256(bytes(\"\")) && \n                keccak256(bytes(t)) != keccak256(bytes(\"\")), \n                \"predictor's argument and terms shouldn't be empty\"\n                );\n                \n            stakes = msg.value;\n            prediction = arg_prediction;\n            \n            predictor = arg_predictor;\n            challenger = arg_challenger;\n            arbiter = arg_arbiter;\n            \n            // right now, these conditions are suboptimal: it's a hacky way of approximating null\n            // todo: improve this\n            predictorWins = pWins == address(0x0) ? arg_predictor: pWins;\n            challengerWins = cWins == address(0x0) ? arg_challenger: cWins;\n            \n            // todo: add assertion these aren't empty\n            predictorArg = pArg;\n            detailedTerms = t;\n    }\n    \n    function acceptBet() \n    public \n    payable\n    checkActive\n    isParty {\n        // todo: if challenger, deposit equal stake\n        if (msg.sender == challenger) {\n            require(msg.value == stakes, \"must deposit an equal stake to the predictor!\");\n        }\n        accepted[msg.sender] = true;\n    }\n    \n    function vote(VoteState myVote) \n    public \n    checkActive \n    isParty\n    checkAllAccepted {\n        require(myVote != VoteState.NotVoted, \"can't vote for NotVote\"); // disable voting until all have accepted the bet\n        \n        votes[msg.sender] = myVote;\n        shouldComplete();\n        // todo: disallow anyone but the predictor/challenger/arbiter from accepting/voting\n    }\n    \n    // contract doesn't need to be active for this to work\n    // anybody should be able to call this\n    function getVote(address voter) \n    public \n    view \n    returns (VoteState){\n        return votes[voter];\n    }\n    \n    // todo: should this only run if a party to the bet runs it? by right, they shouldn't even be calling this\n    // i've put in the modifier. let's see how it works\n    function shouldComplete() \n    public \n    checkActive \n    isParty {\n        // majority voted yes = predictor won\n        if (\n            (votes[predictor] == VoteState.VotedYes && votes[challenger] == VoteState.VotedYes) ||\n            (votes[predictor] == VoteState.VotedYes && votes[arbiter] == VoteState.VotedYes) ||\n            (votes[challenger] == VoteState.VotedYes && votes[arbiter] == VoteState.VotedYes)\n            ) {\n                distributeReward(predictorWins);\n            } \n            \n        // majority voted no = challenger won\n        else if (\n            (votes[predictor] == VoteState.VotedNo && votes[challenger] == VoteState.VotedNo) ||\n            (votes[predictor] == VoteState.VotedNo && votes[arbiter] == VoteState.VotedNo) ||\n            (votes[challenger] == VoteState.VotedNo && votes[arbiter] == VoteState.VotedNo)\n            ) {\n                distributeReward(challengerWins);\n            }\n    }\n    \n    // todo: is this a security vulnerability? aka could someone else just trigger this and end bet prematurely?\n    function distributeReward(address rewardee) \n    private \n    checkActive \n    isParty {\n        // send all money to this dude and deactivate contract\n        _isActive = false;\n        // todo: should i stop using transfer? see: https://consensys.net/diligence/blog/2019/09/stop-using-soliditys-transfer-now/\n        payable(rewardee).transfer(address(this).balance);\n    }\n    \n    /* \n    TODO: create this funcs\n    */\n    \n    // edit a bet?\n}\n\n",
  "sourcePath": "/Users/khushjammu/GitHub/longbets/contracts/LongBet.sol",
  "compiler": {
    "name": "solc",
    "version": "0.8.1+commit.df193b15.Emscripten.clang"
  },
  "schemaVersion": "3.3.4",
  "updatedAt": "2021-02-14T08:13:45.771Z",
  "devdoc": {
    "details": "Store & retrieve value in a variable",
    "kind": "dev",
    "methods": {},
    "title": "Long Bets, but Crypto TM",
    "version": 1
  },
  "userdoc": {
    "kind": "user",
    "methods": {},
    "version": 1
  }
}