{
  "contractName": "QuestoBets",
  "abi": [
    {
      "inputs": [
        {
          "internalType": "uint256",
          "name": "",
          "type": "uint256"
        }
      ],
      "name": "bets",
      "outputs": [
        {
          "internalType": "contract LongBet",
          "name": "",
          "type": "address"
        }
      ],
      "stateMutability": "view",
      "type": "function",
      "constant": true
    },
    {
      "inputs": [
        {
          "internalType": "address",
          "name": "arg_challenger",
          "type": "address"
        },
        {
          "internalType": "address",
          "name": "arg_arbiter",
          "type": "address"
        },
        {
          "internalType": "address",
          "name": "pWins",
          "type": "address"
        },
        {
          "internalType": "address",
          "name": "cWins",
          "type": "address"
        },
        {
          "internalType": "string",
          "name": "pArg",
          "type": "string"
        },
        {
          "internalType": "string",
          "name": "t",
          "type": "string"
        }
      ],
      "name": "newBet",
      "outputs": [
        {
          "internalType": "address",
          "name": "",
          "type": "address"
        }
      ],
      "stateMutability": "payable",
      "type": "function",
      "payable": true
    },
    {
      "inputs": [],
      "name": "getLatestBet",
      "outputs": [
        {
          "internalType": "address",
          "name": "",
          "type": "address"
        }
      ],
      "stateMutability": "view",
      "type": "function",
      "constant": true
    },
    {
      "inputs": [],
      "name": "getBets",
      "outputs": [
        {
          "internalType": "contract LongBet[]",
          "name": "",
          "type": "address[]"
        }
      ],
      "stateMutability": "view",
      "type": "function",
      "constant": true
    }
  ],
  "bytecode": "0x608060405234801561001057600080fd5b50613148806100206000396000f3fe608060405260043610620000445760003560e01c806322af00fa146200004957806368ef58bc146200008d578063a6afd5fd14620000c3578063c6604f8514620000f3575b600080fd5b3480156200005657600080fd5b506200007560048036038101906200006f9190620006ce565b62000123565b60405162000084919062000933565b60405180910390f35b620000ab6004803603810190620000a5919062000606565b62000163565b604051620000ba919062000867565b60405180910390f35b348015620000d057600080fd5b50620000db62000449565b604051620000ea91906200090f565b60405180910390f35b3480156200010057600080fd5b506200010b620004d9565b6040516200011a919062000867565b60405180910390f35b600081815481106200013457600080fd5b906000526020600020016000915054906101000a900473ffffffffffffffffffffffffffffffffffffffff1681565b6000803411620001aa576040517f08c379a0000000000000000000000000000000000000000000000000000000008152600401620001a19062000950565b60405180910390fd5b8673ffffffffffffffffffffffffffffffffffffffff163373ffffffffffffffffffffffffffffffffffffffff16141580156200021357508573ffffffffffffffffffffffffffffffffffffffff168773ffffffffffffffffffffffffffffffffffffffff1614155b80156200024c57503373ffffffffffffffffffffffffffffffffffffffff168673ffffffffffffffffffffffffffffffffffffffff1614155b6200028e576040517f08c379a0000000000000000000000000000000000000000000000000000000008152600401620002859062000972565b60405180910390fd5b6040518060200160405280600081525080519060200120838051906020012014158015620002d957506040518060200160405280600081525080519060200120828051906020012014155b6200031b576040517f08c379a0000000000000000000000000000000000000000000000000000000008152600401620003129062000994565b60405180910390fd5b60003433898989898989604051620003339062000558565b62000345979695949392919062000884565b6040518091039082f090508015801562000363573d6000803e3d6000fd5b509080600181540180825580915050600190039060005260206000200160009091909190916101000a81548173ffffffffffffffffffffffffffffffffffffffff021916908373ffffffffffffffffffffffffffffffffffffffff16021790555060006001600080549050620003da919062000a6a565b8154811062000412577f4e487b7100000000000000000000000000000000000000000000000000000000600052603260045260246000fd5b9060005260206000200160009054906101000a900473ffffffffffffffffffffffffffffffffffffffff1690509695505050505050565b60606000805480602002602001604051908101604052809291908181526020018280548015620004cf57602002820191906000526020600020905b8160009054906101000a900473ffffffffffffffffffffffffffffffffffffffff1673ffffffffffffffffffffffffffffffffffffffff168152602001906001019080831162000484575b5050505050905090565b6000806001600080549050620004f0919062000a6a565b8154811062000528577f4e487b7100000000000000000000000000000000000000000000000000000000600052603260045260246000fd5b9060005260206000200160009054906101000a900473ffffffffffffffffffffffffffffffffffffffff16905090565b6124228062000cf183390190565b60006200057d6200057784620009df565b620009b6565b9050828152602081018484840111156200059657600080fd5b620005a384828562000b0b565b509392505050565b600081359050620005bc8162000cbc565b92915050565b600082601f830112620005d457600080fd5b8135620005e684826020860162000566565b91505092915050565b600081359050620006008162000cd6565b92915050565b60008060008060008060c087890312156200062057600080fd5b60006200063089828a01620005ab565b96505060206200064389828a01620005ab565b95505060406200065689828a01620005ab565b94505060606200066989828a01620005ab565b935050608087013567ffffffffffffffff8111156200068757600080fd5b6200069589828a01620005c2565b92505060a087013567ffffffffffffffff811115620006b357600080fd5b620006c189828a01620005c2565b9150509295509295509295565b600060208284031215620006e157600080fd5b6000620006f184828501620005ef565b91505092915050565b60006200070883836200078f565b60208301905092915050565b6200071f8162000aa5565b82525050565b6000620007328262000a25565b6200073e818562000a48565b93506200074b8362000a15565b8060005b8381101562000782578151620007668882620006fa565b9750620007738362000a3b565b9250506001810190506200074f565b5085935050505092915050565b6200079a8162000ae3565b82525050565b620007ab8162000ae3565b82525050565b6000620007be8262000a30565b620007ca818562000a59565b9350620007dc81856020860162000b1a565b620007e78162000be4565b840191505092915050565b60006200080160128362000a59565b91506200080e8262000bf5565b602082019050919050565b600062000828603a8362000a59565b9150620008358262000c1e565b604082019050919050565b60006200084f60318362000a59565b91506200085c8262000c6d565b604082019050919050565b60006020820190506200087e600083018462000714565b92915050565b600060e0820190506200089b600083018a62000714565b620008aa602083018962000714565b620008b9604083018862000714565b620008c8606083018762000714565b620008d7608083018662000714565b81810360a0830152620008eb8185620007b1565b905081810360c0830152620009018184620007b1565b905098975050505050505050565b600060208201905081810360008301526200092b818462000725565b905092915050565b60006020820190506200094a6000830184620007a0565b92915050565b600060208201905081810360008301526200096b81620007f2565b9050919050565b600060208201905081810360008301526200098d8162000819565b9050919050565b60006020820190508181036000830152620009af8162000840565b9050919050565b6000620009c2620009d5565b9050620009d0828262000b50565b919050565b6000604051905090565b600067ffffffffffffffff821115620009fd57620009fc62000bb5565b5b62000a088262000be4565b9050602081019050919050565b6000819050602082019050919050565b600081519050919050565b600081519050919050565b6000602082019050919050565b600082825260208201905092915050565b600082825260208201905092915050565b600062000a778262000ad9565b915062000a848362000ad9565b92508282101562000a9a5762000a9962000b86565b5b828203905092915050565b600062000ab28262000ab9565b9050919050565b600073ffffffffffffffffffffffffffffffffffffffff82169050919050565b6000819050919050565b600062000af08262000af7565b9050919050565b600062000b048262000ab9565b9050919050565b82818337600083830152505050565b60005b8381101562000b3a57808201518184015260208101905062000b1d565b8381111562000b4a576000848401525b50505050565b62000b5b8262000be4565b810181811067ffffffffffffffff8211171562000b7d5762000b7c62000bb5565b5b80604052505050565b7f4e487b7100000000000000000000000000000000000000000000000000000000600052601160045260246000fd5b7f4e487b7100000000000000000000000000000000000000000000000000000000600052604160045260246000fd5b6000601f19601f8301169050919050565b7f6d757374206465706f736974207374616b650000000000000000000000000000600082015250565b7f707265646963746f722c206368616c6c656e6765722c2061726269746572206d60008201527f75737420626520646966666572656e7420616464726573736573000000000000602082015250565b7f707265646963746f72277320617267756d656e7420616e64207465726d73207360008201527f686f756c646e277420626520656d707479000000000000000000000000000000602082015250565b62000cc78162000aa5565b811462000cd357600080fd5b50565b62000ce18162000ad9565b811462000ced57600080fd5b5056fe608060405260016000806101000a81548160ff02191690831515021790555060405162002422380380620024228339818101604052810190620000439190620004eb565b8573ffffffffffffffffffffffffffffffffffffffff168773ffffffffffffffffffffffffffffffffffffffff1614158015620000ac57508473ffffffffffffffffffffffffffffffffffffffff168673ffffffffffffffffffffffffffffffffffffffff1614155b8015620000e557508673ffffffffffffffffffffffffffffffffffffffff168573ffffffffffffffffffffffffffffffffffffffff1614155b62000127576040517f08c379a00000000000000000000000000000000000000000000000000000000081526004016200011e9062000618565b60405180910390fd5b60405180602001604052806000815250805190602001208280519060200120141580156200017257506040518060200160405280600081525080519060200120818051906020012014155b620001b4576040517f08c379a0000000000000000000000000000000000000000000000000000000008152600401620001ab906200063a565b60405180910390fd5b86600060016101000a81548173ffffffffffffffffffffffffffffffffffffffff021916908373ffffffffffffffffffffffffffffffffffffffff16021790555085600160006101000a81548173ffffffffffffffffffffffffffffffffffffffff021916908373ffffffffffffffffffffffffffffffffffffffff16021790555084600260006101000a81548173ffffffffffffffffffffffffffffffffffffffff021916908373ffffffffffffffffffffffffffffffffffffffff160217905550600073ffffffffffffffffffffffffffffffffffffffff168473ffffffffffffffffffffffffffffffffffffffff1614620002b35783620002b5565b865b600460006101000a81548173ffffffffffffffffffffffffffffffffffffffff021916908373ffffffffffffffffffffffffffffffffffffffff160217905550600073ffffffffffffffffffffffffffffffffffffffff168373ffffffffffffffffffffffffffffffffffffffff161462000331578262000333565b855b600560006101000a81548173ffffffffffffffffffffffffffffffffffffffff021916908373ffffffffffffffffffffffffffffffffffffffff16021790555081600790805190602001906200038b929190620003b2565b5080600a9080519060200190620003a4929190620003b2565b5050505050505050620008c9565b828054620003c09062000736565b90600052602060002090601f016020900481019282620003e4576000855562000430565b82601f10620003ff57805160ff191683800117855562000430565b8280016001018555821562000430579182015b828111156200042f57825182559160200191906001019062000412565b5b5090506200043f919062000443565b5090565b5b808211156200045e57600081600090555060010162000444565b5090565b600062000479620004738462000685565b6200065c565b9050828152602081018484840111156200049257600080fd5b6200049f84828562000700565b509392505050565b600081519050620004b881620008af565b92915050565b600082601f830112620004d057600080fd5b8151620004e284826020860162000462565b91505092915050565b600080600080600080600060e0888a0312156200050757600080fd5b6000620005178a828b01620004a7565b97505060206200052a8a828b01620004a7565b96505060406200053d8a828b01620004a7565b9550506060620005508a828b01620004a7565b9450506080620005638a828b01620004a7565b93505060a088015167ffffffffffffffff8111156200058157600080fd5b6200058f8a828b01620004be565b92505060c088015167ffffffffffffffff811115620005ad57600080fd5b620005bb8a828b01620004be565b91505092959891949750929550565b6000620005d9603a83620006bb565b9150620005e68262000811565b604082019050919050565b600062000600603183620006bb565b91506200060d8262000860565b604082019050919050565b600060208201905081810360008301526200063381620005ca565b9050919050565b600060208201905081810360008301526200065581620005f1565b9050919050565b6000620006686200067b565b90506200067682826200076c565b919050565b6000604051905090565b600067ffffffffffffffff821115620006a357620006a2620007d1565b5b620006ae8262000800565b9050602081019050919050565b600082825260208201905092915050565b6000620006d982620006e0565b9050919050565b600073ffffffffffffffffffffffffffffffffffffffff82169050919050565b60005b838110156200072057808201518184015260208101905062000703565b8381111562000730576000848401525b50505050565b600060028204905060018216806200074f57607f821691505b60208210811415620007665762000765620007a2565b5b50919050565b620007778262000800565b810181811067ffffffffffffffff82111715620007995762000798620007d1565b5b80604052505050565b7f4e487b7100000000000000000000000000000000000000000000000000000000600052602260045260246000fd5b7f4e487b7100000000000000000000000000000000000000000000000000000000600052604160045260246000fd5b6000601f19601f8301169050919050565b7f707265646963746f722c206368616c6c656e6765722c2061726269746572206d60008201527f75737420626520646966666572656e7420616464726573736573000000000000602082015250565b7f707265646963746f72277320617267756d656e7420616e64207465726d73207360008201527f686f756c646e277420626520656d707479000000000000000000000000000000602082015250565b620008ba81620006cc565b8114620008c657600080fd5b50565b611b4980620008d96000396000f3fe608060405234801561001057600080fd5b50600436106100f55760003560e01c80635ce0201111610097578063a621372d11610066578063a621372d1461022e578063ad09c7ce1461024c578063b3f98adc1461026a578063fe25e00a14610286576100f5565b80635ce02011146101b85780638073f69c146101d657806383cbac8b146101e05780638d337b81146101fe576100f5565b80632372c916116100d35780632372c9161461015457806330bfcb5f146101725780634f3966921461017c578063534db0e21461019a576100f5565b806306f534ed146100fa5780630aab1f041461011857806311eae37614610136575b600080fd5b6101026102a4565b60405161010f9190611839565b60405180910390f35b6101206102ca565b60405161012d919061186f565b60405180910390f35b61013e610358565b60405161014b9190611839565b60405180910390f35b61015c61037e565b604051610169919061186f565b60405180910390f35b61017a61040c565b005b6101846104b3565b604051610191919061186f565b60405180910390f35b6101a2610541565b6040516101af9190611839565b60405180910390f35b6101c0610567565b6040516101cd919061186f565b60405180910390f35b6101de6105f5565b005b6101e8611185565b6040516101f59190611839565b60405180910390f35b61021860048036038101906102139190611718565b6111ab565b6040516102259190611854565b60405180910390f35b61023661124f565b604051610243919061186f565b60405180910390f35b6102546112dd565b60405161026191906118f1565b60405180910390f35b610284600480360381019061027f9190611741565b6112e3565b005b61028e611617565b60405161029b9190611839565b60405180910390f35b600560009054906101000a900473ffffffffffffffffffffffffffffffffffffffff1681565b600a80546102d7906119bc565b80601f0160208091040260200160405190810160405280929190818152602001828054610303906119bc565b80156103505780601f1061032557610100808354040283529160200191610350565b820191906000526020600020905b81548152906001019060200180831161033357829003601f168201915b505050505081565b600460009054906101000a900473ffffffffffffffffffffffffffffffffffffffff1681565b6006805461038b906119bc565b80601f01602080910402602001604051908101604052809291908181526020018280546103b7906119bc565b80156104045780601f106103d957610100808354040283529160200191610404565b820191906000526020600020905b8154815290600101906020018083116103e757829003601f168201915b505050505081565b60008054906101000a900460ff16610459576040517f08c379a0000000000000000000000000000000000000000000000000000000008152600401610450906118b1565b60405180910390fd5b6001600c60003373ffffffffffffffffffffffffffffffffffffffff1673ffffffffffffffffffffffffffffffffffffffff16815260200190815260200160002060006101000a81548160ff021916908315150217905550565b600980546104c0906119bc565b80601f01602080910402602001604051908101604052809291908181526020018280546104ec906119bc565b80156105395780601f1061050e57610100808354040283529160200191610539565b820191906000526020600020905b81548152906001019060200180831161051c57829003601f168201915b505050505081565b600160009054906101000a900473ffffffffffffffffffffffffffffffffffffffff1681565b60088054610574906119bc565b80601f01602080910402602001604051908101604052809291908181526020018280546105a0906119bc565b80156105ed5780601f106105c2576101008083540402835291602001916105ed565b820191906000526020600020905b8154815290600101906020018083116105d057829003601f168201915b505050505081565b60008054906101000a900460ff16610642576040517f08c379a0000000000000000000000000000000000000000000000000000000008152600401610639906118b1565b60405180910390fd5b6001600281111561067c577f4e487b7100000000000000000000000000000000000000000000000000000000600052602160045260246000fd5b600b60008060019054906101000a900473ffffffffffffffffffffffffffffffffffffffff1673ffffffffffffffffffffffffffffffffffffffff1673ffffffffffffffffffffffffffffffffffffffff16815260200190815260200160002060009054906101000a900460ff166002811115610722577f4e487b7100000000000000000000000000000000000000000000000000000000600052602160045260246000fd5b14801561080d575060016002811115610764577f4e487b7100000000000000000000000000000000000000000000000000000000600052602160045260246000fd5b600b6000600160009054906101000a900473ffffffffffffffffffffffffffffffffffffffff1673ffffffffffffffffffffffffffffffffffffffff1673ffffffffffffffffffffffffffffffffffffffff16815260200190815260200160002060009054906101000a900460ff16600281111561080b577f4e487b7100000000000000000000000000000000000000000000000000000000600052602160045260246000fd5b145b806109df57506001600281111561084d577f4e487b7100000000000000000000000000000000000000000000000000000000600052602160045260246000fd5b600b60008060019054906101000a900473ffffffffffffffffffffffffffffffffffffffff1673ffffffffffffffffffffffffffffffffffffffff1673ffffffffffffffffffffffffffffffffffffffff16815260200190815260200160002060009054906101000a900460ff1660028111156108f3577f4e487b7100000000000000000000000000000000000000000000000000000000600052602160045260246000fd5b1480156109de575060016002811115610935577f4e487b7100000000000000000000000000000000000000000000000000000000600052602160045260246000fd5b600b6000600260009054906101000a900473ffffffffffffffffffffffffffffffffffffffff1673ffffffffffffffffffffffffffffffffffffffff1673ffffffffffffffffffffffffffffffffffffffff16815260200190815260200160002060009054906101000a900460ff1660028111156109dc577f4e487b7100000000000000000000000000000000000000000000000000000000600052602160045260246000fd5b145b5b80610bb2575060016002811115610a1f577f4e487b7100000000000000000000000000000000000000000000000000000000600052602160045260246000fd5b600b6000600160009054906101000a900473ffffffffffffffffffffffffffffffffffffffff1673ffffffffffffffffffffffffffffffffffffffff1673ffffffffffffffffffffffffffffffffffffffff16815260200190815260200160002060009054906101000a900460ff166002811115610ac6577f4e487b7100000000000000000000000000000000000000000000000000000000600052602160045260246000fd5b148015610bb1575060016002811115610b08577f4e487b7100000000000000000000000000000000000000000000000000000000600052602160045260246000fd5b600b6000600260009054906101000a900473ffffffffffffffffffffffffffffffffffffffff1673ffffffffffffffffffffffffffffffffffffffff1673ffffffffffffffffffffffffffffffffffffffff16815260200190815260200160002060009054906101000a900460ff166002811115610baf577f4e487b7100000000000000000000000000000000000000000000000000000000600052602160045260246000fd5b145b5b15610be757610be2600460009054906101000a900473ffffffffffffffffffffffffffffffffffffffff1661163d565b611183565b600280811115610c20577f4e487b7100000000000000000000000000000000000000000000000000000000600052602160045260246000fd5b600b60008060019054906101000a900473ffffffffffffffffffffffffffffffffffffffff1673ffffffffffffffffffffffffffffffffffffffff1673ffffffffffffffffffffffffffffffffffffffff16815260200190815260200160002060009054906101000a900460ff166002811115610cc6577f4e487b7100000000000000000000000000000000000000000000000000000000600052602160045260246000fd5b148015610db05750600280811115610d07577f4e487b7100000000000000000000000000000000000000000000000000000000600052602160045260246000fd5b600b6000600160009054906101000a900473ffffffffffffffffffffffffffffffffffffffff1673ffffffffffffffffffffffffffffffffffffffff1673ffffffffffffffffffffffffffffffffffffffff16815260200190815260200160002060009054906101000a900460ff166002811115610dae577f4e487b7100000000000000000000000000000000000000000000000000000000600052602160045260246000fd5b145b80610f805750600280811115610def577f4e487b7100000000000000000000000000000000000000000000000000000000600052602160045260246000fd5b600b60008060019054906101000a900473ffffffffffffffffffffffffffffffffffffffff1673ffffffffffffffffffffffffffffffffffffffff1673ffffffffffffffffffffffffffffffffffffffff16815260200190815260200160002060009054906101000a900460ff166002811115610e95577f4e487b7100000000000000000000000000000000000000000000000000000000600052602160045260246000fd5b148015610f7f5750600280811115610ed6577f4e487b7100000000000000000000000000000000000000000000000000000000600052602160045260246000fd5b600b6000600260009054906101000a900473ffffffffffffffffffffffffffffffffffffffff1673ffffffffffffffffffffffffffffffffffffffff1673ffffffffffffffffffffffffffffffffffffffff16815260200190815260200160002060009054906101000a900460ff166002811115610f7d577f4e487b7100000000000000000000000000000000000000000000000000000000600052602160045260246000fd5b145b5b806111515750600280811115610fbf577f4e487b7100000000000000000000000000000000000000000000000000000000600052602160045260246000fd5b600b6000600160009054906101000a900473ffffffffffffffffffffffffffffffffffffffff1673ffffffffffffffffffffffffffffffffffffffff1673ffffffffffffffffffffffffffffffffffffffff16815260200190815260200160002060009054906101000a900460ff166002811115611066577f4e487b7100000000000000000000000000000000000000000000000000000000600052602160045260246000fd5b14801561115057506002808111156110a7577f4e487b7100000000000000000000000000000000000000000000000000000000600052602160045260246000fd5b600b6000600260009054906101000a900473ffffffffffffffffffffffffffffffffffffffff1673ffffffffffffffffffffffffffffffffffffffff1673ffffffffffffffffffffffffffffffffffffffff16815260200190815260200160002060009054906101000a900460ff16600281111561114e577f4e487b7100000000000000000000000000000000000000000000000000000000600052602160045260246000fd5b145b5b1561118257611181600560009054906101000a900473ffffffffffffffffffffffffffffffffffffffff1661163d565b5b5b565b600060019054906101000a900473ffffffffffffffffffffffffffffffffffffffff1681565b60008060009054906101000a900460ff166111fb576040517f08c379a00000000000000000000000000000000000000000000000000000000081526004016111f2906118b1565b60405180910390fd5b600b60008373ffffffffffffffffffffffffffffffffffffffff1673ffffffffffffffffffffffffffffffffffffffff16815260200190815260200160002060009054906101000a900460ff169050919050565b6007805461125c906119bc565b80601f0160208091040260200160405190810160405280929190818152602001828054611288906119bc565b80156112d55780601f106112aa576101008083540402835291602001916112d5565b820191906000526020600020905b8154815290600101906020018083116112b857829003601f168201915b505050505081565b60035481565b60008054906101000a900460ff16611330576040517f08c379a0000000000000000000000000000000000000000000000000000000008152600401611327906118b1565b60405180910390fd5b600c60008060019054906101000a900473ffffffffffffffffffffffffffffffffffffffff1673ffffffffffffffffffffffffffffffffffffffff1673ffffffffffffffffffffffffffffffffffffffff16815260200190815260200160002060009054906101000a900460ff1680156114155750600c6000600160009054906101000a900473ffffffffffffffffffffffffffffffffffffffff1673ffffffffffffffffffffffffffffffffffffffff1673ffffffffffffffffffffffffffffffffffffffff16815260200190815260200160002060009054906101000a900460ff165b801561148c5750600c6000600260009054906101000a900473ffffffffffffffffffffffffffffffffffffffff1673ffffffffffffffffffffffffffffffffffffffff1673ffffffffffffffffffffffffffffffffffffffff16815260200190815260200160002060009054906101000a900460ff165b6114cb576040517f08c379a00000000000000000000000000000000000000000000000000000000081526004016114c290611891565b60405180910390fd5b60006002811115611505577f4e487b7100000000000000000000000000000000000000000000000000000000600052602160045260246000fd5b81600281111561153e577f4e487b7100000000000000000000000000000000000000000000000000000000600052602160045260246000fd5b141561157f576040517f08c379a0000000000000000000000000000000000000000000000000000000008152600401611576906118d1565b60405180910390fd5b80600b60003373ffffffffffffffffffffffffffffffffffffffff1673ffffffffffffffffffffffffffffffffffffffff16815260200190815260200160002060006101000a81548160ff02191690836002811115611607577f4e487b7100000000000000000000000000000000000000000000000000000000600052602160045260246000fd5b02179055506116146105f5565b50565b600260009054906101000a900473ffffffffffffffffffffffffffffffffffffffff1681565b60008054906101000a900460ff1661168a576040517f08c379a0000000000000000000000000000000000000000000000000000000008152600401611681906118b1565b60405180910390fd5b60008060006101000a81548160ff0219169083151502179055508073ffffffffffffffffffffffffffffffffffffffff166108fc479081150290604051600060405180830381858888f193505050501580156116ea573d6000803e3d6000fd5b5050565b6000813590506116fd81611aec565b92915050565b60008135905061171281611b03565b92915050565b60006020828403121561172a57600080fd5b6000611738848285016116ee565b91505092915050565b60006020828403121561175357600080fd5b600061176184828501611703565b91505092915050565b61177381611928565b82525050565b61178281611977565b82525050565b60006117938261190c565b61179d8185611917565b93506117ad818560208601611989565b6117b681611a4c565b840191505092915050565b60006117ce601d83611917565b91506117d982611a5d565b602082019050919050565b60006117f1601983611917565b91506117fc82611a86565b602082019050919050565b6000611814601683611917565b915061181f82611aaf565b602082019050919050565b6118338161196d565b82525050565b600060208201905061184e600083018461176a565b92915050565b60006020820190506118696000830184611779565b92915050565b600060208201905081810360008301526118898184611788565b905092915050565b600060208201905081810360008301526118aa816117c1565b9050919050565b600060208201905081810360008301526118ca816117e4565b9050919050565b600060208201905081810360008301526118ea81611807565b9050919050565b6000602082019050611906600083018461182a565b92915050565b600081519050919050565b600082825260208201905092915050565b60006119338261194d565b9050919050565b600081905061194882611ad8565b919050565b600073ffffffffffffffffffffffffffffffffffffffff82169050919050565b6000819050919050565b60006119828261193a565b9050919050565b60005b838110156119a757808201518184015260208101905061198c565b838111156119b6576000848401525b50505050565b600060028204905060018216806119d457607f821691505b602082108114156119e8576119e7611a1d565b5b50919050565b7f4e487b7100000000000000000000000000000000000000000000000000000000600052602160045260246000fd5b7f4e487b7100000000000000000000000000000000000000000000000000000000600052602260045260246000fd5b6000601f19601f8301169050919050565b7f6e6f7420616c6c20706172746965732068617665206163636570746564000000600082015250565b7f636f6e7472616374206e6f206c6f6e6765722061637469766500000000000000600082015250565b7f63616e277420766f746520666f72204e6f74566f746500000000000000000000600082015250565b60038110611ae957611ae86119ee565b5b50565b611af581611928565b8114611b0057600080fd5b50565b60038110611b1057600080fd5b5056fea264697066735822122042d63179daa3b258d1c511dc8ba1dd5bd39436d126e11a5886b9ca04ba6facba64736f6c63430008010033a2646970667358221220aaadf750599907d9c37bb83e9f2971a0795a9da5e49868b24c63ef088a5932b764736f6c63430008010033",
  "immutableReferences": {},
  "source": "// SPDX-License-Identifier: GPL-3.0\npragma solidity >=0.8.0 <0.9.0;\n\n/**\n * @title Long Bets, but Crypto TM\n * @dev Store & retrieve value in a variable\n */\n\nimport \"./LongBet.sol\";\n\ncontract QuestoBets {\n    LongBet[] public bets;\n\n    function newBet(\n        address arg_challenger, \n        address arg_arbiter, \n        address pWins, \n        address cWins, \n        string memory pArg, \n        string memory t)\n    payable \n    public returns (address){\n        require(msg.value > 0, \"must deposit stake\");\n        require(msg.sender != arg_challenger && arg_challenger != arg_arbiter && arg_arbiter != msg.sender, \"predictor, challenger, arbiter must be different addresses\");\n        require(\n            keccak256(bytes(pArg)) != keccak256(bytes(\"\")) && \n            keccak256(bytes(t)) != keccak256(bytes(\"\")), \n            \"predictor's argument and terms shouldn't be empty\"\n            );\n\n        bets.push(new LongBet{value:msg.value}(msg.sender, arg_challenger, arg_arbiter, pWins, cWins, pArg, t));\n        // payable(address(bets[bets.length-1])).transfer(msg.value);\n        return address(bets[bets.length-1]);\n    }\n\n    function getLatestBet()\n    public\n    view\n    returns (address) {\n        return address(bets[bets.length-1]);\n    }\n\n    function getBets()\n    public\n    view\n    returns (LongBet[] memory) {\n        return bets;\n    }\n}\n\n",
  "sourcePath": "/Users/khushjammu/GitHub/longbets/contracts/QuestoBets.sol",
  "compiler": {
    "name": "solc",
    "version": "0.8.1+commit.df193b15.Emscripten.clang"
  },
  "schemaVersion": "3.3.4",
  "updatedAt": "2021-02-14T03:39:31.430Z",
  "networkType": "ethereum",
  "devdoc": {
    "kind": "dev",
    "methods": {},
    "version": 1
  },
  "userdoc": {
    "kind": "user",
    "methods": {},
    "version": 1
  }
}