{
  "contractName": "QuestoBets",
  "abi": [
    {
      "anonymous": false,
      "inputs": [
        {
          "indexed": true,
          "internalType": "address",
          "name": "predictor",
          "type": "address"
        },
        {
          "indexed": true,
          "internalType": "address",
          "name": "challenger",
          "type": "address"
        },
        {
          "indexed": true,
          "internalType": "address",
          "name": "arbiter",
          "type": "address"
        },
        {
          "indexed": false,
          "internalType": "address",
          "name": "createdBet",
          "type": "address"
        }
      ],
      "name": "NewBet",
      "type": "event"
    },
    {
      "inputs": [
        {
          "internalType": "uint256",
          "name": "",
          "type": "uint256"
        }
      ],
      "name": "bets",
      "outputs": [
        {
          "internalType": "contract LongBet",
          "name": "",
          "type": "address"
        }
      ],
      "stateMutability": "view",
      "type": "function",
      "constant": true
    },
    {
      "inputs": [
        {
          "internalType": "string",
          "name": "prediction",
          "type": "string"
        },
        {
          "internalType": "address",
          "name": "arg_challenger",
          "type": "address"
        },
        {
          "internalType": "address",
          "name": "arg_arbiter",
          "type": "address"
        },
        {
          "internalType": "address",
          "name": "pWins",
          "type": "address"
        },
        {
          "internalType": "address",
          "name": "cWins",
          "type": "address"
        },
        {
          "internalType": "string",
          "name": "pArg",
          "type": "string"
        },
        {
          "internalType": "string",
          "name": "t",
          "type": "string"
        }
      ],
      "name": "newBet",
      "outputs": [],
      "stateMutability": "payable",
      "type": "function",
      "payable": true
    },
    {
      "inputs": [],
      "name": "getLatestBet",
      "outputs": [
        {
          "internalType": "address",
          "name": "",
          "type": "address"
        }
      ],
      "stateMutability": "view",
      "type": "function",
      "constant": true
    },
    {
      "inputs": [],
      "name": "getBets",
      "outputs": [
        {
          "internalType": "contract LongBet[]",
          "name": "",
          "type": "address[]"
        }
      ],
      "stateMutability": "view",
      "type": "function",
      "constant": true
    }
  ],
  "bytecode": "0x608060405234801561001057600080fd5b50613c56806100206000396000f3fe608060405260043610620000445760003560e01c806322af00fa146200004957806393c94c37146200008d578063a6afd5fd14620000ad578063c6604f8514620000dd575b600080fd5b3480156200005657600080fd5b506200007560048036038101906200006f9190620007ed565b6200010d565b60405162000084919062000a24565b60405180910390f35b620000ab6004803603810190620000a59190620006e8565b6200014d565b005b348015620000ba57600080fd5b50620000c562000550565b604051620000d4919062000a00565b60405180910390f35b348015620000ea57600080fd5b50620000f5620005e0565b604051620001049190620009e3565b60405180910390f35b600081815481106200011e57600080fd5b906000526020600020016000915054906101000a900473ffffffffffffffffffffffffffffffffffffffff1681565b60405180602001604052806000815250805190602001208a8a60405162000176929190620009c8565b60405180910390201415620001c2576040517f08c379a0000000000000000000000000000000000000000000000000000000008152600401620001b99062000b50565b60405180910390fd5b6000341162000208576040517f08c379a0000000000000000000000000000000000000000000000000000000008152600401620001ff9062000aea565b60405180910390fd5b8773ffffffffffffffffffffffffffffffffffffffff163373ffffffffffffffffffffffffffffffffffffffff16141580156200027157508673ffffffffffffffffffffffffffffffffffffffff168873ffffffffffffffffffffffffffffffffffffffff1614155b8015620002aa57503373ffffffffffffffffffffffffffffffffffffffff168773ffffffffffffffffffffffffffffffffffffffff1614155b620002ec576040517f08c379a0000000000000000000000000000000000000000000000000000000008152600401620002e39062000b0c565b60405180910390fd5b6040518060200160405280600081525080519060200120848460405162000315929190620009c8565b6040518091039020141580156200035b57506040518060200160405280600081525080519060200120828260405162000350929190620009c8565b604051809103902014155b6200039d576040517f08c379a0000000000000000000000000000000000000000000000000000000008152600401620003949062000b2e565b60405180910390fd5b6000348b8b338c8c8c8c8c8c8c8c604051620003b9906200065f565b620003cf9b9a9998979695949392919062000a41565b6040518091039082f0905080158015620003ed573d6000803e3d6000fd5b509080600181540180825580915050600190039060005260206000200160009091909190916101000a81548173ffffffffffffffffffffffffffffffffffffffff021916908373ffffffffffffffffffffffffffffffffffffffff1602179055508673ffffffffffffffffffffffffffffffffffffffff168873ffffffffffffffffffffffffffffffffffffffff163373ffffffffffffffffffffffffffffffffffffffff167f35056da170a978ebe0b47549af881582ce8a780117d88938650a85f479bc94f560006001600080549050620004ca919062000bc7565b8154811062000502577f4e487b7100000000000000000000000000000000000000000000000000000000600052603260045260246000fd5b9060005260206000200160009054906101000a900473ffffffffffffffffffffffffffffffffffffffff166040516200053c9190620009e3565b60405180910390a450505050505050505050565b60606000805480602002602001604051908101604052809291908181526020018280548015620005d657602002820191906000526020600020905b8160009054906101000a900473ffffffffffffffffffffffffffffffffffffffff1673ffffffffffffffffffffffffffffffffffffffff16815260200190600101908083116200058b575b5050505050905090565b6000806001600080549050620005f7919062000bc7565b815481106200062f577f4e487b7100000000000000000000000000000000000000000000000000000000600052603260045260246000fd5b9060005260206000200160009054906101000a900473ffffffffffffffffffffffffffffffffffffffff16905090565b612e458062000ddc83390190565b6000813590506200067e8162000da7565b92915050565b60008083601f8401126200069757600080fd5b8235905067ffffffffffffffff811115620006b157600080fd5b602083019150836001820283011115620006ca57600080fd5b9250929050565b600081359050620006e28162000dc1565b92915050565b60008060008060008060008060008060e08b8d0312156200070857600080fd5b60008b013567ffffffffffffffff8111156200072357600080fd5b620007318d828e0162000684565b9a509a50506020620007468d828e016200066d565b9850506040620007598d828e016200066d565b97505060606200076c8d828e016200066d565b96505060806200077f8d828e016200066d565b95505060a08b013567ffffffffffffffff8111156200079d57600080fd5b620007ab8d828e0162000684565b945094505060c08b013567ffffffffffffffff811115620007cb57600080fd5b620007d98d828e0162000684565b92509250509295989b9194979a5092959850565b6000602082840312156200080057600080fd5b60006200081084828501620006d1565b91505092915050565b6000620008278383620008d7565b60208301905092915050565b6200083e8162000c02565b82525050565b6000620008518262000b82565b6200085d818562000b9a565b93506200086a8362000b72565b8060005b83811015620008a157815162000885888262000819565b9750620008928362000b8d565b9250506001810190506200086e565b5085935050505092915050565b6000620008bc838562000bab565b9350620008cb83858462000c68565b82840190509392505050565b620008e28162000c40565b82525050565b620008f38162000c40565b82525050565b600062000907838562000bb6565b93506200091683858462000c68565b620009218362000ca6565b840190509392505050565b60006200093b60128362000bb6565b9150620009488262000cb7565b602082019050919050565b600062000962603a8362000bb6565b91506200096f8262000ce0565b604082019050919050565b60006200098960318362000bb6565b9150620009968262000d2f565b604082019050919050565b6000620009b060188362000bb6565b9150620009bd8262000d7e565b602082019050919050565b6000620009d7828486620008ae565b91508190509392505050565b6000602082019050620009fa600083018462000833565b92915050565b6000602082019050818103600083015262000a1c818462000844565b905092915050565b600060208201905062000a3b6000830184620008e8565b92915050565b600061010082019050818103600083015262000a5f818d8f620008f9565b905062000a70602083018c62000833565b62000a7f604083018b62000833565b62000a8e606083018a62000833565b62000a9d608083018962000833565b62000aac60a083018862000833565b81810360c083015262000ac1818688620008f9565b905081810360e083015262000ad8818486620008f9565b90509c9b505050505050505050505050565b6000602082019050818103600083015262000b05816200092c565b9050919050565b6000602082019050818103600083015262000b278162000953565b9050919050565b6000602082019050818103600083015262000b49816200097a565b9050919050565b6000602082019050818103600083015262000b6b81620009a1565b9050919050565b6000819050602082019050919050565b600081519050919050565b6000602082019050919050565b600082825260208201905092915050565b600081905092915050565b600082825260208201905092915050565b600062000bd48262000c36565b915062000be18362000c36565b92508282101562000bf75762000bf662000c77565b5b828203905092915050565b600062000c0f8262000c16565b9050919050565b600073ffffffffffffffffffffffffffffffffffffffff82169050919050565b6000819050919050565b600062000c4d8262000c54565b9050919050565b600062000c618262000c16565b9050919050565b82818337600083830152505050565b7f4e487b7100000000000000000000000000000000000000000000000000000000600052601160045260246000fd5b6000601f19601f8301169050919050565b7f6d757374206465706f736974207374616b650000000000000000000000000000600082015250565b7f707265646963746f722c206368616c6c656e6765722c2061726269746572206d60008201527f75737420626520646966666572656e7420616464726573736573000000000000602082015250565b7f707265646963746f72277320617267756d656e7420616e64207465726d73207360008201527f686f756c646e277420626520656d707479000000000000000000000000000000602082015250565b7f6d7573742070726f766964652070726564696374696f6e210000000000000000600082015250565b62000db28162000c02565b811462000dbe57600080fd5b50565b62000dcc8162000c36565b811462000dd857600080fd5b5056fe608060405260016000806101000a81548160ff02191690831515021790555060405162002e4538038062002e458339818101604052810190620000439190620005b5565b6000341162000089576040517f08c379a000000000000000000000000000000000000000000000000000000000815260040162000080906200075f565b60405180910390fd5b604051806020016040528060008152508051906020012088805190602001201415620000ec576040517f08c379a0000000000000000000000000000000000000000000000000000000008152600401620000e390620007c5565b60405180910390fd5b8573ffffffffffffffffffffffffffffffffffffffff168773ffffffffffffffffffffffffffffffffffffffff16141580156200015557508473ffffffffffffffffffffffffffffffffffffffff168673ffffffffffffffffffffffffffffffffffffffff1614155b80156200018e57508673ffffffffffffffffffffffffffffffffffffffff168573ffffffffffffffffffffffffffffffffffffffff1614155b620001d0576040517f08c379a0000000000000000000000000000000000000000000000000000000008152600401620001c79062000781565b60405180910390fd5b60405180602001604052806000815250805190602001208280519060200120141580156200021b57506040518060200160405280600081525080519060200120818051906020012014155b6200025d576040517f08c379a00000000000000000000000000000000000000000000000000000000081526004016200025490620007a3565b60405180910390fd5b3460038190555087600690805190602001906200027c9291906200047c565b5086600060016101000a81548173ffffffffffffffffffffffffffffffffffffffff021916908373ffffffffffffffffffffffffffffffffffffffff16021790555085600160006101000a81548173ffffffffffffffffffffffffffffffffffffffff021916908373ffffffffffffffffffffffffffffffffffffffff16021790555084600260006101000a81548173ffffffffffffffffffffffffffffffffffffffff021916908373ffffffffffffffffffffffffffffffffffffffff160217905550600073ffffffffffffffffffffffffffffffffffffffff168473ffffffffffffffffffffffffffffffffffffffff16146200037c57836200037e565b865b600460006101000a81548173ffffffffffffffffffffffffffffffffffffffff021916908373ffffffffffffffffffffffffffffffffffffffff160217905550600073ffffffffffffffffffffffffffffffffffffffff168373ffffffffffffffffffffffffffffffffffffffff1614620003fa5782620003fc565b855b600560006101000a81548173ffffffffffffffffffffffffffffffffffffffff021916908373ffffffffffffffffffffffffffffffffffffffff1602179055508160079080519060200190620004549291906200047c565b5080600a90805190602001906200046d9291906200047c565b50505050505050505062000aa6565b8280546200048a90620008c1565b90600052602060002090601f016020900481019282620004ae5760008555620004fa565b82601f10620004c957805160ff1916838001178555620004fa565b82800160010185558215620004fa579182015b82811115620004f9578251825591602001919060010190620004dc565b5b5090506200050991906200050d565b5090565b5b80821115620005285760008160009055506001016200050e565b5090565b6000620005436200053d8462000810565b620007e7565b9050828152602081018484840111156200055c57600080fd5b620005698482856200088b565b509392505050565b600081519050620005828162000a8c565b92915050565b600082601f8301126200059a57600080fd5b8151620005ac8482602086016200052c565b91505092915050565b600080600080600080600080610100898b031215620005d357600080fd5b600089015167ffffffffffffffff811115620005ee57600080fd5b620005fc8b828c0162000588565b98505060206200060f8b828c0162000571565b9750506040620006228b828c0162000571565b9650506060620006358b828c0162000571565b9550506080620006488b828c0162000571565b94505060a06200065b8b828c0162000571565b93505060c089015167ffffffffffffffff8111156200067957600080fd5b620006878b828c0162000588565b92505060e089015167ffffffffffffffff811115620006a557600080fd5b620006b38b828c0162000588565b9150509295985092959890939650565b6000620006d260128362000846565b9150620006df826200099c565b602082019050919050565b6000620006f9603a8362000846565b91506200070682620009c5565b604082019050919050565b60006200072060318362000846565b91506200072d8262000a14565b604082019050919050565b60006200074760188362000846565b9150620007548262000a63565b602082019050919050565b600060208201905081810360008301526200077a81620006c3565b9050919050565b600060208201905081810360008301526200079c81620006ea565b9050919050565b60006020820190508181036000830152620007be8162000711565b9050919050565b60006020820190508181036000830152620007e08162000738565b9050919050565b6000620007f362000806565b9050620008018282620008f7565b919050565b6000604051905090565b600067ffffffffffffffff8211156200082e576200082d6200095c565b5b62000839826200098b565b9050602081019050919050565b600082825260208201905092915050565b600062000864826200086b565b9050919050565b600073ffffffffffffffffffffffffffffffffffffffff82169050919050565b60005b83811015620008ab5780820151818401526020810190506200088e565b83811115620008bb576000848401525b50505050565b60006002820490506001821680620008da57607f821691505b60208210811415620008f157620008f06200092d565b5b50919050565b62000902826200098b565b810181811067ffffffffffffffff821117156200092457620009236200095c565b5b80604052505050565b7f4e487b7100000000000000000000000000000000000000000000000000000000600052602260045260246000fd5b7f4e487b7100000000000000000000000000000000000000000000000000000000600052604160045260246000fd5b6000601f19601f8301169050919050565b7f6d757374206465706f736974207374616b650000000000000000000000000000600082015250565b7f707265646963746f722c206368616c6c656e6765722c2061726269746572206d60008201527f75737420626520646966666572656e7420616464726573736573000000000000602082015250565b7f707265646963746f72277320617267756d656e7420616e64207465726d73207360008201527f686f756c646e277420626520656d707479000000000000000000000000000000602082015250565b7f6d7573742070726f766964652070726564696374696f6e210000000000000000600082015250565b62000a978162000857565b811462000aa357600080fd5b50565b61238f8062000ab66000396000f3fe6080604052600436106100fe5760003560e01c80635ce0201111610095578063a621372d11610064578063a621372d146102f6578063ad09c7ce14610321578063b3f98adc1461034c578063d8bff5a514610375578063fe25e00a146103b2576100fe565b80635ce020111461024c5780638073f69c1461027757806383cbac8b1461028e5780638d337b81146102b9576100fe565b80632b34af70116100d15780632b34af70146101af57806330bfcb5f146101ec5780634f396692146101f6578063534db0e214610221576100fe565b806306f534ed146101035780630aab1f041461012e57806311eae376146101595780632372c91614610184575b600080fd5b34801561010f57600080fd5b506101186103dd565b6040516101259190611f54565b60405180910390f35b34801561013a57600080fd5b50610143610403565b6040516101509190611fa5565b60405180910390f35b34801561016557600080fd5b5061016e610491565b60405161017b9190611f54565b60405180910390f35b34801561019057600080fd5b506101996104b7565b6040516101a69190611fa5565b60405180910390f35b3480156101bb57600080fd5b506101d660048036038101906101d19190611dde565b610545565b6040516101e39190611f6f565b60405180910390f35b6101f4610565565b005b34801561020257600080fd5b5061020b6107e7565b6040516102189190611fa5565b60405180910390f35b34801561022d57600080fd5b50610236610875565b6040516102439190611f54565b60405180910390f35b34801561025857600080fd5b5061026161089b565b60405161026e9190611fa5565b60405180910390f35b34801561028357600080fd5b5061028c610929565b005b34801561029a57600080fd5b506102a36115f9565b6040516102b09190611f54565b60405180910390f35b3480156102c557600080fd5b506102e060048036038101906102db9190611dde565b61161f565b6040516102ed9190611f8a565b60405180910390f35b34801561030257600080fd5b5061030b611675565b6040516103189190611fa5565b60405180910390f35b34801561032d57600080fd5b50610336611703565b6040516103439190612067565b60405180910390f35b34801561035857600080fd5b50610373600480360381019061036e9190611e07565b611709565b005b34801561038157600080fd5b5061039c60048036038101906103979190611dde565b611b7d565b6040516103a99190611f8a565b60405180910390f35b3480156103be57600080fd5b506103c7611b9d565b6040516103d49190611f54565b60405180910390f35b600560009054906101000a900473ffffffffffffffffffffffffffffffffffffffff1681565b600a80546104109061213e565b80601f016020809104026020016040519081016040528092919081815260200182805461043c9061213e565b80156104895780601f1061045e57610100808354040283529160200191610489565b820191906000526020600020905b81548152906001019060200180831161046c57829003601f168201915b505050505081565b600460009054906101000a900473ffffffffffffffffffffffffffffffffffffffff1681565b600680546104c49061213e565b80601f01602080910402602001604051908101604052809291908181526020018280546104f09061213e565b801561053d5780601f106105125761010080835404028352916020019161053d565b820191906000526020600020905b81548152906001019060200180831161052057829003601f168201915b505050505081565b600c6020528060005260406000206000915054906101000a900460ff1681565b60008054906101000a900460ff166105b2576040517f08c379a00000000000000000000000000000000000000000000000000000000081526004016105a990612007565b60405180910390fd5b600060019054906101000a900473ffffffffffffffffffffffffffffffffffffffff1673ffffffffffffffffffffffffffffffffffffffff163373ffffffffffffffffffffffffffffffffffffffff16148061065b5750600160009054906101000a900473ffffffffffffffffffffffffffffffffffffffff1673ffffffffffffffffffffffffffffffffffffffff163373ffffffffffffffffffffffffffffffffffffffff16145b806106b35750600260009054906101000a900473ffffffffffffffffffffffffffffffffffffffff1673ffffffffffffffffffffffffffffffffffffffff163373ffffffffffffffffffffffffffffffffffffffff16145b6106f2576040517f08c379a00000000000000000000000000000000000000000000000000000000081526004016106e990611fe7565b60405180910390fd5b600160009054906101000a900473ffffffffffffffffffffffffffffffffffffffff1673ffffffffffffffffffffffffffffffffffffffff163373ffffffffffffffffffffffffffffffffffffffff16141561078d57600354341461078c576040517f08c379a000000000000000000000000000000000000000000000000000000000815260040161078390612047565b60405180910390fd5b5b6001600c60003373ffffffffffffffffffffffffffffffffffffffff1673ffffffffffffffffffffffffffffffffffffffff16815260200190815260200160002060006101000a81548160ff021916908315150217905550565b600980546107f49061213e565b80601f01602080910402602001604051908101604052809291908181526020018280546108209061213e565b801561086d5780601f106108425761010080835404028352916020019161086d565b820191906000526020600020905b81548152906001019060200180831161085057829003601f168201915b505050505081565b600160009054906101000a900473ffffffffffffffffffffffffffffffffffffffff1681565b600880546108a89061213e565b80601f01602080910402602001604051908101604052809291908181526020018280546108d49061213e565b80156109215780601f106108f657610100808354040283529160200191610921565b820191906000526020600020905b81548152906001019060200180831161090457829003601f168201915b505050505081565b60008054906101000a900460ff16610976576040517f08c379a000000000000000000000000000000000000000000000000000000000815260040161096d90612007565b60405180910390fd5b600060019054906101000a900473ffffffffffffffffffffffffffffffffffffffff1673ffffffffffffffffffffffffffffffffffffffff163373ffffffffffffffffffffffffffffffffffffffff161480610a1f5750600160009054906101000a900473ffffffffffffffffffffffffffffffffffffffff1673ffffffffffffffffffffffffffffffffffffffff163373ffffffffffffffffffffffffffffffffffffffff16145b80610a775750600260009054906101000a900473ffffffffffffffffffffffffffffffffffffffff1673ffffffffffffffffffffffffffffffffffffffff163373ffffffffffffffffffffffffffffffffffffffff16145b610ab6576040517f08c379a0000000000000000000000000000000000000000000000000000000008152600401610aad90611fe7565b60405180910390fd5b60016002811115610af0577f4e487b7100000000000000000000000000000000000000000000000000000000600052602160045260246000fd5b600b60008060019054906101000a900473ffffffffffffffffffffffffffffffffffffffff1673ffffffffffffffffffffffffffffffffffffffff1673ffffffffffffffffffffffffffffffffffffffff16815260200190815260200160002060009054906101000a900460ff166002811115610b96577f4e487b7100000000000000000000000000000000000000000000000000000000600052602160045260246000fd5b148015610c81575060016002811115610bd8577f4e487b7100000000000000000000000000000000000000000000000000000000600052602160045260246000fd5b600b6000600160009054906101000a900473ffffffffffffffffffffffffffffffffffffffff1673ffffffffffffffffffffffffffffffffffffffff1673ffffffffffffffffffffffffffffffffffffffff16815260200190815260200160002060009054906101000a900460ff166002811115610c7f577f4e487b7100000000000000000000000000000000000000000000000000000000600052602160045260246000fd5b145b80610e53575060016002811115610cc1577f4e487b7100000000000000000000000000000000000000000000000000000000600052602160045260246000fd5b600b60008060019054906101000a900473ffffffffffffffffffffffffffffffffffffffff1673ffffffffffffffffffffffffffffffffffffffff1673ffffffffffffffffffffffffffffffffffffffff16815260200190815260200160002060009054906101000a900460ff166002811115610d67577f4e487b7100000000000000000000000000000000000000000000000000000000600052602160045260246000fd5b148015610e52575060016002811115610da9577f4e487b7100000000000000000000000000000000000000000000000000000000600052602160045260246000fd5b600b6000600260009054906101000a900473ffffffffffffffffffffffffffffffffffffffff1673ffffffffffffffffffffffffffffffffffffffff1673ffffffffffffffffffffffffffffffffffffffff16815260200190815260200160002060009054906101000a900460ff166002811115610e50577f4e487b7100000000000000000000000000000000000000000000000000000000600052602160045260246000fd5b145b5b80611026575060016002811115610e93577f4e487b7100000000000000000000000000000000000000000000000000000000600052602160045260246000fd5b600b6000600160009054906101000a900473ffffffffffffffffffffffffffffffffffffffff1673ffffffffffffffffffffffffffffffffffffffff1673ffffffffffffffffffffffffffffffffffffffff16815260200190815260200160002060009054906101000a900460ff166002811115610f3a577f4e487b7100000000000000000000000000000000000000000000000000000000600052602160045260246000fd5b148015611025575060016002811115610f7c577f4e487b7100000000000000000000000000000000000000000000000000000000600052602160045260246000fd5b600b6000600260009054906101000a900473ffffffffffffffffffffffffffffffffffffffff1673ffffffffffffffffffffffffffffffffffffffff1673ffffffffffffffffffffffffffffffffffffffff16815260200190815260200160002060009054906101000a900460ff166002811115611023577f4e487b7100000000000000000000000000000000000000000000000000000000600052602160045260246000fd5b145b5b1561105b57611056600460009054906101000a900473ffffffffffffffffffffffffffffffffffffffff16611bc3565b6115f7565b600280811115611094577f4e487b7100000000000000000000000000000000000000000000000000000000600052602160045260246000fd5b600b60008060019054906101000a900473ffffffffffffffffffffffffffffffffffffffff1673ffffffffffffffffffffffffffffffffffffffff1673ffffffffffffffffffffffffffffffffffffffff16815260200190815260200160002060009054906101000a900460ff16600281111561113a577f4e487b7100000000000000000000000000000000000000000000000000000000600052602160045260246000fd5b148015611224575060028081111561117b577f4e487b7100000000000000000000000000000000000000000000000000000000600052602160045260246000fd5b600b6000600160009054906101000a900473ffffffffffffffffffffffffffffffffffffffff1673ffffffffffffffffffffffffffffffffffffffff1673ffffffffffffffffffffffffffffffffffffffff16815260200190815260200160002060009054906101000a900460ff166002811115611222577f4e487b7100000000000000000000000000000000000000000000000000000000600052602160045260246000fd5b145b806113f45750600280811115611263577f4e487b7100000000000000000000000000000000000000000000000000000000600052602160045260246000fd5b600b60008060019054906101000a900473ffffffffffffffffffffffffffffffffffffffff1673ffffffffffffffffffffffffffffffffffffffff1673ffffffffffffffffffffffffffffffffffffffff16815260200190815260200160002060009054906101000a900460ff166002811115611309577f4e487b7100000000000000000000000000000000000000000000000000000000600052602160045260246000fd5b1480156113f3575060028081111561134a577f4e487b7100000000000000000000000000000000000000000000000000000000600052602160045260246000fd5b600b6000600260009054906101000a900473ffffffffffffffffffffffffffffffffffffffff1673ffffffffffffffffffffffffffffffffffffffff1673ffffffffffffffffffffffffffffffffffffffff16815260200190815260200160002060009054906101000a900460ff1660028111156113f1577f4e487b7100000000000000000000000000000000000000000000000000000000600052602160045260246000fd5b145b5b806115c55750600280811115611433577f4e487b7100000000000000000000000000000000000000000000000000000000600052602160045260246000fd5b600b6000600160009054906101000a900473ffffffffffffffffffffffffffffffffffffffff1673ffffffffffffffffffffffffffffffffffffffff1673ffffffffffffffffffffffffffffffffffffffff16815260200190815260200160002060009054906101000a900460ff1660028111156114da577f4e487b7100000000000000000000000000000000000000000000000000000000600052602160045260246000fd5b1480156115c4575060028081111561151b577f4e487b7100000000000000000000000000000000000000000000000000000000600052602160045260246000fd5b600b6000600260009054906101000a900473ffffffffffffffffffffffffffffffffffffffff1673ffffffffffffffffffffffffffffffffffffffff1673ffffffffffffffffffffffffffffffffffffffff16815260200190815260200160002060009054906101000a900460ff1660028111156115c2577f4e487b7100000000000000000000000000000000000000000000000000000000600052602160045260246000fd5b145b5b156115f6576115f5600560009054906101000a900473ffffffffffffffffffffffffffffffffffffffff16611bc3565b5b5b565b600060019054906101000a900473ffffffffffffffffffffffffffffffffffffffff1681565b6000600b60008373ffffffffffffffffffffffffffffffffffffffff1673ffffffffffffffffffffffffffffffffffffffff16815260200190815260200160002060009054906101000a900460ff169050919050565b600780546116829061213e565b80601f01602080910402602001604051908101604052809291908181526020018280546116ae9061213e565b80156116fb5780601f106116d0576101008083540402835291602001916116fb565b820191906000526020600020905b8154815290600101906020018083116116de57829003601f168201915b505050505081565b60035481565b60008054906101000a900460ff16611756576040517f08c379a000000000000000000000000000000000000000000000000000000000815260040161174d90612007565b60405180910390fd5b600060019054906101000a900473ffffffffffffffffffffffffffffffffffffffff1673ffffffffffffffffffffffffffffffffffffffff163373ffffffffffffffffffffffffffffffffffffffff1614806117ff5750600160009054906101000a900473ffffffffffffffffffffffffffffffffffffffff1673ffffffffffffffffffffffffffffffffffffffff163373ffffffffffffffffffffffffffffffffffffffff16145b806118575750600260009054906101000a900473ffffffffffffffffffffffffffffffffffffffff1673ffffffffffffffffffffffffffffffffffffffff163373ffffffffffffffffffffffffffffffffffffffff16145b611896576040517f08c379a000000000000000000000000000000000000000000000000000000000815260040161188d90611fe7565b60405180910390fd5b600c60008060019054906101000a900473ffffffffffffffffffffffffffffffffffffffff1673ffffffffffffffffffffffffffffffffffffffff1673ffffffffffffffffffffffffffffffffffffffff16815260200190815260200160002060009054906101000a900460ff16801561197b5750600c6000600160009054906101000a900473ffffffffffffffffffffffffffffffffffffffff1673ffffffffffffffffffffffffffffffffffffffff1673ffffffffffffffffffffffffffffffffffffffff16815260200190815260200160002060009054906101000a900460ff165b80156119f25750600c6000600260009054906101000a900473ffffffffffffffffffffffffffffffffffffffff1673ffffffffffffffffffffffffffffffffffffffff1673ffffffffffffffffffffffffffffffffffffffff16815260200190815260200160002060009054906101000a900460ff165b611a31576040517f08c379a0000000000000000000000000000000000000000000000000000000008152600401611a2890611fc7565b60405180910390fd5b60006002811115611a6b577f4e487b7100000000000000000000000000000000000000000000000000000000600052602160045260246000fd5b816002811115611aa4577f4e487b7100000000000000000000000000000000000000000000000000000000600052602160045260246000fd5b1415611ae5576040517f08c379a0000000000000000000000000000000000000000000000000000000008152600401611adc90612027565b60405180910390fd5b80600b60003373ffffffffffffffffffffffffffffffffffffffff1673ffffffffffffffffffffffffffffffffffffffff16815260200190815260200160002060006101000a81548160ff02191690836002811115611b6d577f4e487b7100000000000000000000000000000000000000000000000000000000600052602160045260246000fd5b0217905550611b7a610929565b50565b600b6020528060005260406000206000915054906101000a900460ff1681565b600260009054906101000a900473ffffffffffffffffffffffffffffffffffffffff1681565b60008054906101000a900460ff16611c10576040517f08c379a0000000000000000000000000000000000000000000000000000000008152600401611c0790612007565b60405180910390fd5b600060019054906101000a900473ffffffffffffffffffffffffffffffffffffffff1673ffffffffffffffffffffffffffffffffffffffff163373ffffffffffffffffffffffffffffffffffffffff161480611cb95750600160009054906101000a900473ffffffffffffffffffffffffffffffffffffffff1673ffffffffffffffffffffffffffffffffffffffff163373ffffffffffffffffffffffffffffffffffffffff16145b80611d115750600260009054906101000a900473ffffffffffffffffffffffffffffffffffffffff1673ffffffffffffffffffffffffffffffffffffffff163373ffffffffffffffffffffffffffffffffffffffff16145b611d50576040517f08c379a0000000000000000000000000000000000000000000000000000000008152600401611d4790611fe7565b60405180910390fd5b60008060006101000a81548160ff0219169083151502179055508073ffffffffffffffffffffffffffffffffffffffff166108fc479081150290604051600060405180830381858888f19350505050158015611db0573d6000803e3d6000fd5b5050565b600081359050611dc381612332565b92915050565b600081359050611dd881612349565b92915050565b600060208284031215611df057600080fd5b6000611dfe84828501611db4565b91505092915050565b600060208284031215611e1957600080fd5b6000611e2784828501611dc9565b91505092915050565b611e398161209e565b82525050565b611e48816120b0565b82525050565b611e57816120f9565b82525050565b6000611e6882612082565b611e72818561208d565b9350611e8281856020860161210b565b611e8b816121ce565b840191505092915050565b6000611ea3601d8361208d565b9150611eae826121df565b602082019050919050565b6000611ec660438361208d565b9150611ed182612208565b606082019050919050565b6000611ee960198361208d565b9150611ef48261227d565b602082019050919050565b6000611f0c60168361208d565b9150611f17826122a6565b602082019050919050565b6000611f2f602d8361208d565b9150611f3a826122cf565b604082019050919050565b611f4e816120ef565b82525050565b6000602082019050611f696000830184611e30565b92915050565b6000602082019050611f846000830184611e3f565b92915050565b6000602082019050611f9f6000830184611e4e565b92915050565b60006020820190508181036000830152611fbf8184611e5d565b905092915050565b60006020820190508181036000830152611fe081611e96565b9050919050565b6000602082019050818103600083015261200081611eb9565b9050919050565b6000602082019050818103600083015261202081611edc565b9050919050565b6000602082019050818103600083015261204081611eff565b9050919050565b6000602082019050818103600083015261206081611f22565b9050919050565b600060208201905061207c6000830184611f45565b92915050565b600081519050919050565b600082825260208201905092915050565b60006120a9826120cf565b9050919050565b60008115159050919050565b60008190506120ca8261231e565b919050565b600073ffffffffffffffffffffffffffffffffffffffff82169050919050565b6000819050919050565b6000612104826120bc565b9050919050565b60005b8381101561212957808201518184015260208101905061210e565b83811115612138576000848401525b50505050565b6000600282049050600182168061215657607f821691505b6020821081141561216a5761216961219f565b5b50919050565b7f4e487b7100000000000000000000000000000000000000000000000000000000600052602160045260246000fd5b7f4e487b7100000000000000000000000000000000000000000000000000000000600052602260045260246000fd5b6000601f19601f8301169050919050565b7f6e6f7420616c6c20706172746965732068617665206163636570746564000000600082015250565b7f6572726f723a206e6f7420707265646963746f722c206368616c6c656e67657260008201527f2c206f7220617262697465722e206d75737420626520706172747920746f206260208201527f65742e0000000000000000000000000000000000000000000000000000000000604082015250565b7f636f6e7472616374206e6f206c6f6e6765722061637469766500000000000000600082015250565b7f63616e277420766f746520666f72204e6f74566f746500000000000000000000600082015250565b7f6d757374206465706f73697420616e20657175616c207374616b6520746f207460008201527f686520707265646963746f722100000000000000000000000000000000000000602082015250565b6003811061232f5761232e612170565b5b50565b61233b8161209e565b811461234657600080fd5b50565b6003811061235657600080fd5b5056fea264697066735822122056286496cdad59ae701dcc9b683c2730563cc8795611765efd56831b270598e564736f6c63430008010033a264697066735822122013805a0166fa37b9b6cc417f51471e8bb119f0450f76c25f9b4a4536f5cf50e064736f6c63430008010033",
  "immutableReferences": {},
  "source": "// SPDX-License-Identifier: GPL-3.0\npragma solidity >=0.8.0 <0.9.0;\n\n/**\n * @title Long Bets, but Crypto TM\n * @dev Store & retrieve value in a variable\n */\n\nimport \"./LongBet.sol\";\n\ncontract QuestoBets {\n    LongBet[] public bets;\n\n    event NewBet(\n        address indexed predictor,\n        address indexed challenger,\n        address indexed arbiter,\n        address createdBet\n        );\n\n    // todo: right now, this returns nothing because it modifies the state (https://ethereum.stackexchange.com/questions/35679/how-to-return-address-from-newly-created-contract)\n    // make it emit an event\n    function newBet(\n        string calldata prediction,\n        address arg_challenger, \n        address arg_arbiter, \n        address pWins, \n        address cWins, \n        string calldata pArg, \n        string calldata t)\n    payable \n    public {\n        require (keccak256(bytes(prediction)) != keccak256(bytes(\"\")), \"must provide prediction!\");\n        require(msg.value > 0, \"must deposit stake\");\n        require(msg.sender != arg_challenger && arg_challenger != arg_arbiter && arg_arbiter != msg.sender, \"predictor, challenger, arbiter must be different addresses\");\n        require(\n            keccak256(bytes(pArg)) != keccak256(bytes(\"\")) && \n            keccak256(bytes(t)) != keccak256(bytes(\"\")), \n            \"predictor's argument and terms shouldn't be empty\"\n            );\n\n        bets.push(new LongBet{value:msg.value}(prediction, msg.sender, arg_challenger, arg_arbiter, pWins, cWins, pArg, t));\n        // payable(address(bets[bets.length-1])).transfer(msg.value);\n        emit NewBet(msg.sender, arg_challenger, arg_arbiter, address(bets[bets.length-1]));\n    }\n\n    function getLatestBet()\n    public\n    view\n    returns (address) {\n        return address(bets[bets.length-1]);\n    }\n\n    function getBets()\n    public\n    view\n    returns (LongBet[] memory) {\n        return bets;\n    }\n}\n\n",
  "sourcePath": "/Users/khushjammu/GitHub/longbets/contracts/QuestoBets.sol",
  "compiler": {
    "name": "solc",
    "version": "0.8.1+commit.df193b15.Emscripten.clang"
  },
  "schemaVersion": "3.3.4",
  "updatedAt": "2021-02-14T08:13:50.775Z",
  "networkType": "ethereum",
  "devdoc": {
    "kind": "dev",
    "methods": {},
    "version": 1
  },
  "userdoc": {
    "kind": "user",
    "methods": {},
    "version": 1
  }
}